:100000000C947E010C949B010C94B6010C949B0102
:100010000C949B010C949B010C9440170C949B0135
:100020000C949B010C949B010C949B010C949B01E0
:100030000C949B010C949B010C94C7170C949B018E
:100040000C949B010C949B010C949B010C949B01C0
:100050000C949B010C949B010C949B010C949B01B0
:100060000C949B010C949B01733245365E453A3EDD
:10007000365E3D403432453A403F203740463F35BA
:10008000203245203D4044453A3F5D3440353644BA
:100090005E737262613043404534403F5C4132439D
:1000A000454A5D39453E3D0A0079403A3F20464485
:1000B00020374043204539362043404560623D3279
:1000C000334420413243454A2032452073747572CF
:1000D0007E7D6261500A000A72403F3843324546D5
:1000E0003D32453A403F44500A00005701570257FD
:1000F000035704570557070006002D0020001F0076
:10010000005209000400170020001F0000520400E4
:100110001500100020001F000052070012001100FF
:1001200008000657005215001200170020001F009B
:100130000052080016001300005220001F001B0090
:100140000052007700521B00005200000000000027
:1001500000002A2B28000000000000000000000022
:10016000000000000029000000002C1E3420212285
:1001700024342627252E362D3738271E1F202122EE
:10018000232425263333362E37381F040506070867
:10019000090A0B0C0D0E0F10111213141516171857
:1001A000191A1B1C1D2F3130232D35040506070895
:1001B000090A0B0C0D0E0F10111213141516171837
:1001C000191A1B1C1D2F3130354C00000000000097
:1001D000000000000000000000000000000000001F
:1001E00000000000000000000000000000007E0F82
:1001F00000D4FFFFFFC70000007809023B000201A6
:1002000000A0FA0904000001030101000921010115
:1002100000012244000705810308000109040100D0
:100220000103000000092101010001223B00070534
:1002300083030800011201100100000008EDFEEF29
:10024000BE0001010200011A0372006F0074006316
:100250000030006E002000620061006400670065ED
:10026000000000140372006F007400310033006C52
:100270000061006200730000000403090405010925
:1002800006A1018506050719E029E7150025019556
:1002900008750181020507190029EF150025019550
:1002A000F07501810205081901290595057501916F
:1002B00002950175039103C005010906A101050717
:1002C00019E029E7150025019508750181029501BE
:1002D000750881030507190029FF150026FF009501
:1002E00006750881000508190129051500250195E5
:1002F0000575019102950175039103C011241FBE7C
:10030000CFEFD8E0DEBFCDBF11E0A0E0B1E0E8EC78
:10031000F7E302C005900D92AA3AB107D9F722E09F
:10032000AAEAB1E001C01D92AD3CB207E1F70E941C
:10033000F2110C94AD1B0C940000A82FB92F80E093
:1003400090E041E050EA609530E009C02D918227AD
:100350009795879510F084279527305EC8F36F5FD7
:10036000A8F30895EADF8D939D930895CF93CFB7B7
:10037000CF93DF93C3954B9BE9F74B9B10C04B9BEF
:100380000EC04B9B0CC04B9B0AC04B9B08C04B9BA9
:1003900006C0C091A402C395C093A4028EC06F93FF
:1003A000C091A302DD27C555DD4F2F9365E54B9B1B
:1003B00003C02F916F91E1CF0F931F934F9320E0D4
:1003C00040E15F9309B10C7003FB27F93F9350E0C4
:1003D0003BE039C01C7040642F77012F5F5F1EC067
:1003E000406819B11C702F7752501FC0406409B18A
:1003F0002F770C70D1F15F5F00C023C0406219B14C
:100400002F771C7091F15F5F00C025C00C70102722
:10041000515012F45D5F0000115027952C3F19B127
:10042000C8F61C700127015027952C3FC8F64227BB
:10043000499309B10C7010274F73115027952C3F29
:10044000A8F64695469519B11C7079F00127015020
:1004500027952C3F98F66B5A60F3315009B1B0F6EE
:1004600000C012E01CBB00271CC03B503195C31BD1
:10047000D04012E01CBB0881033C21F10B3411F188
:100480002091A0021981110F1213EDCF4A81441F50
:10049000093679F10D3211F0013E29F74F7009F05C
:1004A000042F0093A9023F915F914F911F910F91EB
:1004B0002F916F91CCB3C1FD5DCFDF91CF91CFBFB5
:1004C000CF9118952091A902222369F31091A702D8
:1004D000112309F049C034300AF448C03093A70210
:1004E0002093A2021091A3023BE0311B3093A302A0
:1004F0003DC00091A7020130BCF50AE54F7049F4F8
:100500003091A30134FD33C00093A301CDE7D2E0C5
:1005100032C0433059F0443091F03091880234FDBC
:1005200026C000938802C9E8D2E025C03091C102FC
:1005300034FD1DC00093C102C2ECD2E01CC030915A
:10054000940234FD14C000939402C5E9D2E013C0B4
:10055000052710E000C000000BB91AC0052710E005
:10056000221F1DC010E021C04AE502C032ED432F1A
:10057000C4E1D0E032E01AB11C605B9A0BB11AB949
:100580005CE020E865E320FF05270BB92795179568
:100590001C3FF0F66695B8F7B1F720FF05270BB9B9
:1005A000279517951C3FD0F62795179517FF052718
:1005B00000001C3F0BB9B0F629913A9519F7037F5B
:1005C0001091A802110FC651D0400BB911F0109331
:1005D000A00212E01CBB08601AB1137F402F437FBA
:1005E00054E05A95F1F70BB91AB94BB95CCF8115A4
:1005F0009747E1F4FB0185818823C1F060E087ED36
:1006000090E00E94D313FFEF23ED80E3F1502040F0
:100610008040E1F700C0000060E089EA90E00E94BD
:10062000D31360E088E690E00E94D31381E0089540
:100630008830B8F46230A8F4433098F450E093E086
:10064000699F400D511D1124FA0196E0899FE00D2C
:10065000F11D1124EE0FFF1FE651FF4F859194917C
:10066000089581E090E008950E94180308959C0188
:100670003A9521153F4150F5FC01EE27F170BC0180
:1006800066277270AC01442754709C012227387091
:1006900094FF0EC080E1EF2B09F480E0672B09F096
:1006A0008062452B09F08064232B89F080680895CF
:1006B00081E0EF2B09F480E0672B09F08260452B85
:1006C00009F08460232B19F08860089580E0089574
:1006D000CF93DF93EB010E943703FE010995DF9171
:1006E000CF910895CF93DF93EC01805E9109089735
:1006F00020F068E877E0209711F469E675E0CE0114
:100700000E9468038C2F0E940905DF91CF91089504
:10071000CF93DF93EC010E942F05CE01805E9109FB
:10072000089720F06FE877E0209711F460E775E014
:10073000CE010E946803DF91CF91089581E0089572
:100740000E949E03089581E008950E94F702089593
:1007500008950E94A8030895A6E0B0E0E2EBF3E05C
:100760000C941D1B49835A839E833091B10189816A
:100770009A8131111AC03E81332399F0222389F0E6
:100780000E94EF08182F682F89819A810E94CB0858
:1007900069817A81812F0E94C90F2696E3E00C942B
:1007A000391B0E94DD08182FF3CF0E94EF086981E2
:1007B0007A81F1CFFC01262F4081518162817381C2
:1007C000848195810E94AC030895CF93DF93EC015F
:1007D00061E00E94DA03BE010E94A003DF91CF9185
:1007E0000895CF93DF93EC0160E00E94DA03BE012D
:1007F0000E94A903DF91CF91089581E008950E949E
:10080000FD030895CF93C82F0E94A0078C2F0E944C
:10081000FF032FEF84E39CE0215080409040E1F7FC
:1008200000C00000CF91089581E00E9402040E9460
:10083000EB17089580E00E9402040E9400180895BA
:100840000F931F93CF93DF938C0161E00E94DA0333
:10085000EC01B8010E945415882329F061E0C80119
:100860000E94DA03EC01B801CE010E94A5038111B8
:1008700006C080E0DF91CF911F910F910895B801DC
:10088000CE010E947C158823A1F3B801CE010E94FD
:100890009F14882371F3B801CE010E944F12882360
:1008A00041F3B801CE010E942512882311F3F8010B
:1008B0008581882361F0C330FCE7DF07E9F058F455
:1008C000C115ECE7DE07A9F0C130DC47B9F0C8017B
:1008D0000E94A303CFCFCB358CE7D807A9F0CC3546
:1008E000ECE7DE0771F0CA35DC4789F70E942A0D74
:1008F000EECF0E941404BDCF0E94320D0E941A0454
:10090000B8CF0E94200DE3CF0E942E0DE0CF0E94B1
:1009100022170E94AE0408950E94B2040E94271775
:100920000895089581E008950895CF93DF93D82F17
:100930000E949204C82F882319F08D2F0E949404DE
:100940008C2FDF91CF9108950895CF93C82F0E94E7
:1009500091048C2F0E949504CF91089580E00E940D
:10096000A50408950E9407160E94A5040895CF9338
:100970000E940716C82F8091AC018C1779F0C093A4
:10098000AC010E94AC176093AD017093AE018093EF
:10099000AF019093B0018C2F0E94A504CF910895D0
:1009A000ADE0B0E0E6EDF4E00C941E1B48875987FB
:1009B0006A877B878C879D8791110E943F0C1F82DD
:1009C00086E0FE013896DE01119601900D928A951F
:1009D000E1F78D8181110DC029813A814B815C81C4
:1009E0006D817E818F810E94860B2D96E2E00C94B2
:1009F0003A1BCE0101960E94E5038111EDCFF5CFA0
:100A0000FC012481213021F4808191810E942109FF
:100A10000895CF93C82F882399F08CEF8C0F813ADB
:100A200088F48C2F0E944F16882329F08C2F0E9467
:100A3000EF160E94C40C8C2F0E94D8160E94C40C82
:100A4000CF91089580E28C0F8830D0F7C77081E095
:100A500001C0880FCA95EAF70E941F0CEFCF8823C8
:100A600041F09CEF980F913A28F40E94EF160E94F3
:100A7000C40C089590E2980F9830D8F7877091E0F1
:100A800001C0990F8A95EAF7892F0E94250CEFCFB4
:100A90001F93CF93DF93182FEB010E940905209736
:100AA00039F4812F0E942F05DF91CF911F91089576
:100AB0008FE99FE00197F1F700C000002197EFCF89
:100AC00070E060E0893311F460E570E00E94480551
:100AD0000895882321F00E941F0C0E94C40C0895E1
:100AE000882321F00E94250C0E94C40C0895B0E0D8
:100AF000A0E0EDE7F5E00C94171B6C01D62FC72F93
:100B0000FC011581068102950F700E94150CE82EDC
:100B10008823F9F0E12E1123E1F08C2F807F8034BF
:100B200061F080E28D0F883008F18C2F807E80325A
:100B300021F4D230D8F00023C9F08091740282FFF2
:100B400015C082E00E94F40C0E94150C91E0E82E82
:100B5000E926BC2EB2949FE0B922FBE0FB15B8F168
:100B6000EB2DF0E0E155F44E0C94081BE12CF1CF95
:100B70000C2F0F70C07F11F00295007F112399F0A8
:100B8000002359F080E28D0F883010F0D11107C09A
:100B9000802F0E941F0C0E94C40C8D2F5AC0802FE2
:100BA0000E94320CF8CF8D2F0E942F05002379F080
:100BB00080E28D0F883010F0D11104C0802F0E9488
:100BC000250C03C0802F0E94380C0E94C40CEB2D12
:100BD000E850FF0B349720F40E9407160E94A504EA
:100BE000EE2089F00E94110C80FD0DC0F6011582E7
:100BF0000E940B0C0E942908C6010E9465070E94F2
:100C00000B0C0E943908CDB7DEB7E9E00C94331B1A
:100C10002C2F2F70F22EC07FC03219F0F29480EF8B
:100C2000F822DD2341F0D130D1F1112309F444C081
:100C30000023F1F0B2CF8091740282FD15C0112320
:100C400059F0FF2029F08F2D0E941F0C0E94C40C28
:100C500080E00E940905BBCF80E00E942F05FF20A5
:100C600009F4B5CF8F2DABCF112369F0011104C06A
:100C70008F2D0E946905ABCF013009F0A8CF8F2DD1
:100C80000E94590CA4CF0111A2CF8F2D0E94700594
:100C90008F2D0E94650C8F2D0E94490C98CF112337
:100CA00021F0063008F093CFE3CF053008F08FCF66
:100CB0008F2D0E9470058BCF0023D1F3D93349F4D7
:100CC0003FEF87EE93E0315080409040E1F700C065
:100CD00000008D2F0E942F057ACF8C2F8370A1F5F5
:100CE000111175CF4D2F429546954770440F440F13
:100CF0002D2F2F7030E0042E02C0220F331F0A94D4
:100D0000E2F790E080E0D4FF09C08FE090E002C0FD
:100D1000880F991F4A95E2F780959095C695C695DC
:100D2000C370822B932BC23049F058F4C13019F0B4
:100D30000E94F9074CCF0E94F00749CF0E94020899
:100D400046CF0E94ED0743CF8695112311F08C2FDB
:100D50008170882309F43BCF4D2F4295469547700B
:100D6000440F440F2D2F2F7030E0042E02C0220FAD
:100D7000331F0A94E2F790E080E0D4FF09C08FE0CF
:100D800090E002C0880F991F4A95E2F780959095F0
:100D9000C695C695C370822B932BC23049F058F488
:100DA000C13019F00E94640812CF0E945B080FCF77
:100DB0000E946D080CCF0E94110809CFCF7011233B
:100DC00029F08C2F0E9429088D2F53CF8D2F0E9440
:100DD00070058C2F0E943908FACED23F41F160F4A1
:100DE000D03FB9F0D13F81F0112309F446C0011181
:100DF000D4CE8C2F8F711FC0D33F01F1D43FA1F708
:100E00008091740282FD24C08C2F8F71112311F305
:100E100012C0112341F0053008F0D9CE8C2F8F710C
:100E20000E944B08D4CE063008F0D1CEF7CF8C2FDD
:100E30008F711111CFCF0E942908C9CE112329F03B
:100E40008C2F8F710E941D08C2CE0E941808BFCE41
:100E5000112349F0CF718C2F0E94290863E08C2F59
:100E60000E94D60CB4CE81E00E94F40C023008F44B
:100E7000AECE82E00E94F40CAACE002359F0D93302
:100E800009F027CFEFEFF7EE23E0E150F0402040EC
:100E9000E1F71DCF8C2F8F719DCF0F931F93CF93B1
:100EA000DF93EC01688179818D810E942C098C018E
:100EB0000E9476080E94EC07B801CE010E947705D7
:100EC000DF91CF911F910F910895CF93DF93EC01A4
:100ED0008C81882399F0CE010E942004811111C0D9
:100EE0000E94150C882351F08D81882339F0809160
:100EF000740282FF03C082E00E94F40CDF91CF9164
:100F00000895CE010E944D07CE010E94F103F6CF55
:100F1000882321F00E94320C0E94C40C089588237B
:100F200021F00E94380C0E94C40C08950E943F0CCE
:100F30000E94C40C08950E9406170E949607089507
:100F40000E942C0C0E949B07089592959F709630EA
:100F500091F058F4925F9F70923058F4803F19F0EE
:100F600030F4883E30F481E008959A5FF4CF843FF6
:100F7000D1F380E00895883EB0F3813FD1F7F3CFFD
:100F8000FC012481222339F0808191810E94210972
:100F90000E94A507089580E00895A6E0B0E0E3ED83
:100FA000F7E00C941E1B2696E2E00C943A1BA7E097
:100FB000B0E0EDEDF7E00C941E1B2796E2E00C94F8
:100FC0003A1B08950E94E10708950E94E20790935A
:100FD000B9018093B801089508950E94E507089526
:100FE0002091B8013091B901822B932B0E94E50723
:100FF00008952091B8013091B901822393230E9472
:10100000E50708952091B8013091B901822793270F
:101010000E94E50708950E94E10708950E940B08C9
:1010200008950E940E089093B7018093B601089529
:1010300090E080E00E941108089521E030E0A901CD
:1010400002C0440F551F8A95E2F7CA010E94110899
:10105000089521E030E002C0220F331F8A95E2F7A5
:101060008091B6019091B701822B932B0E941108B9
:10107000089521E030E002C0220F331F8A95E2F785
:10108000209530958091B6019091B70182239323EA
:101090000E941108089521E030E002C0220F331FA2
:1010A0008A95E2F78091B6019091B7018227932744
:1010B0000E94110808952091B6013091B701822B4A
:1010C000932B0E94110808952091B6013091B70129
:1010D000822393230E94110808952091B601309134
:1010E000B701822793270E94110808950895262F9B
:1010F000277091E001C0990F2A95EAF723E07695D1
:1011000067952A95E1F7660F771F660F771FFA013B
:10111000E60FF71F50E040E0682F70E08191DF019B
:1011200011979B01042E02C0369527950A94E2F789
:10113000217021952827292328272C934F5F5F4F63
:101140004430510559F70895A82FA77023E09695CC
:1011500087952A95E1F7880F991F880F991FFB0142
:10116000E80FF91F50E040E080E0219130E00A2EC6
:1011700002C0369527950A94E2F721703327042E92
:1011800001C0220F0A94EAF7822B4F5F5F4F443071
:10119000510559F70895262F923070F4833060F48A
:1011A000682F70E083E0989F600D711D112442EB61
:1011B00051E0822F0E9477080895292F923068F419
:1011C000833058F490E062EB71E033E0239F800DB0
:1011D000911D11240E94A408089580E00895B0E0B4
:1011E000A0E0E5EFF8E00C94171B7C010091B6013C
:1011F0001091B7018091B8019091B901082B192B7A
:10120000CFE0D0E0CC24C394D12CBC2EC6010C2E50
:1012100002C0880F991F0A94E2F780239123892B3B
:1012200049F4219790F7B12C8B2DCDB7DEB7E9E0CB
:101230000C94331BB7018C2F0E94D50F019789F3B3
:10124000F3CFCF93DF93EC010E94EF08BE010E9421
:10125000D50FDF91CF9108951F93CF93DF93EB01CB
:101260009091B101992339F0CB010E942109DF91BE
:10127000CF911F910895882369F0CB010E94EF0858
:10128000182F682FCE010E94CB08BE01812F0E942B
:10129000D50FEDCFCB010E94DD08182FF6CF1F939D
:1012A000CF93DF93C091BA0117E08091BB018C13FB
:1012B00004C0DF91CF911F910895D0E01C9FF001F1
:1012C0001D9FF00D1124E454FE4F20813181428195
:1012D00053816481758186810E94D7072196C770EA
:1012E000E4CF2091F4013091F5014091F601509145
:1012F000F7016091F8017091F9018091FA010E9463
:10130000D7070895CF93DF938091FA01807F09F08A
:101310004DC08091F901882309F448C0E091BA01D9
:101320005091BB01C091F501D091F4016091F6019B
:101330007091F70147E05E17C9F18E2F90E0E49FAE
:10134000F0011124E454FE4F2481222391F1489F9F
:10135000F001499FF00D1124DF01A454BE4F1196F6
:101360002C9111972C1325C02C912D1322C015966A
:101370002C91159721111DC012962D913C91261B81
:10138000370B283C3105A8F48091FA018F708061F9
:101390008093FA01EE53FE4F80818F7080618083CD
:1013A00084EF91E00E9465070E944F09DF91CF9181
:1013B0000895FC013196E770BECF482F2091BA0105
:1013C0009091BB0157E0291302C080E0089530E0FE
:1013D000529FF001539FF00D1124E454FE4F818180
:1013E000681306C08081481303C085818111EECF48
:1013F0002F5F3F4F2770E7CFA4E1B0E0E2E0FAE0D3
:101400000C94141B8C0186E0F801DE011F960190FC
:101410000D928A95E1F7F8018481E58094EFA92E79
:1014200091E0B92E9091F80191111FC08823D1F05D
:10143000EE20A9F0C8010E94C007F82E882379F099
:1014400087E0F801D50101900D928A95E1F7C50179
:101450000E9400050E9482090E9471095FC0C801B4
:101460000E946507FF24F39459C0C080D180828018
:101470009380F090F9012091F6013091F701A401D9
:10148000421B530BFF2009F4F9C0483C510508F0FA
:10149000A7C0882309F442C09091F5018091FA0118
:1014A000282F207F09F05CC09D1116C09091F40197
:1014B000C91212C0E1104EC08F7080618093FA0192
:1014C0000E94710984EF91E00E9465078091FA0102
:1014D000F8018683F12C22C0E1103CC06D2D8C2DCB
:1014E0000E94DD096D2D8C2D0E94DD09E82E8111F1
:1014F000F1CFCF86D88A8F8598890E942109292F1C
:1015000022952F70243078F49F702230A8F0992310
:10151000B9F0F8019681907F99F4FE2C8F2D649696
:10152000ECE00C94301B2A5F2F70223068F0C80169
:101530000E946507EF2CF1CF992311F0882369F3FE
:10154000805E883050F3F3CF803F38F3815F833083
:1015500070F7E3CF8091FA0181608093FA01BACFEE
:101560009D1113C09091F401C9120FC0E1100DC07C
:101570008683C8010E94650787E0F801A4EFB1E007
:1015800001900D928A95E1F767CFC8010E94C007CC
:10159000882309F464CFEE2009F461CF8091FA0129
:1015A000803288F02091F4013091F5013987288745
:1015B0009B868A869091F8019C871D868E87CE0136
:1015C00008960E94650787E0F801A4EFB1E001905A
:1015D0000D928A95E1F70E9482090E94710942CF1B
:1015E0009091FA01292F207FA1F4682D9A8A898A87
:1015F000A6017A899E2D0E94CD0784EF91E00E947A
:10160000650787E0F50111928A95E9F70E94710953
:1016100061CF882309F482CF8091F5018D1110C02C
:101620008091F401C8120CC0E1100AC09683C80171
:101630000E94650787E0F50111928A95E9F76ECF60
:10164000C8010E94C007882309F409CFEE2009F4DD
:1016500006CF8091FA01803208F4B5CF2091F401D1
:101660003091F5013A8329839C828B829091F80115
:101670009D831E828F83CE010196A3CF483C5105E6
:10168000B8F5882309F4EECEFE2CEE2009F4E7CE5F
:101690008091F5018D111EC08091F401C8121AC00D
:1016A0008091FA0180FD0DC0982F907F51F08683C4
:1016B000903F09F45ECF982F907F905F8F70892BB9
:1016C00057CF87E0F801A4EFB1E001900D928A9521
:1016D000E1F724CFC8010E94C007811174CF809127
:1016E000FA0181608093FA01C8010E94650716CF54
:1016F000682D9A8A898AA6017A899E2D0E94CD0733
:1017000087E0F50111928A95E9F7A6CEAEE0B0E048
:10171000ECE8FBE00C941D1B288739874A875B8720
:101720006C877D878E87CE0108960E94FC098823EE
:10173000B1F06C85662341F0288539854A855B8543
:101740007D858E850E94D70717E08091BA01909120
:10175000BB0189133DC02E96E3E00C94391B87E052
:10176000FE013896DE01119601900D928A95E1F7FF
:101770008C85882349F32091BB0130E0C901019693
:10178000877099274091BA014817190699F097E098
:10179000929FD001939FB00D1124A454BE4FFE011F
:1017A000319601900D929A95E1F78093BB010E94CA
:1017B0004F09CACF0E94A0071092BB011092BA0134
:1017C00087E0E4EFF1E0DF011D928A95E9F7BCCFF5
:1017D000819FC001112484549E4F0E94FC098823DC
:1017E00009F4B9CFE091BA011E9FF0011124E4542D
:1017F000FE4F2081318142815381648175818681D0
:101800000E94D7078091BA0190E0019687709927CE
:101810008093BA019ACF80911B0286958695869512
:10182000089580911B028770089590911B02977014
:1018300081E009F480E00895809147020895909135
:101840004702892B80934702089580959091470223
:10185000982390934702089510924702089580912B
:101860004602089590914602892B8093460208957E
:101870008095909146029823909346020895109285
:101880004602089580911D02089508950E94450C16
:10189000089590911C02292F282331F080958923E7
:1018A00080931C020E94460C089508950E94550CD6
:1018B000089590911D02292F2823281729F0982B8D
:1018C00090931D020E94560C089590911D02292F9D
:1018D000282331F08095892380931D020E94560CA5
:1018E000089580911D02882329F010921D0280E046
:1018F0000E94560C0895CF93C091470280914602F2
:10190000C82B80911D02882331F0C82B0E942D1610
:1019100081110E94710C8C2FCF910895CF93DF938A
:10192000C0919501D09196010E947B0C8883809193
:101930009501909196010E941416DF91CF91089520
:10194000CF93DF93C0919301D09194010E947B0CBF
:101950008983C0919301D091940140E250E06BEFF4
:1019600071E0CE010E94451B892B59F080E2FE01F7
:10197000ABEFB1E001900D928A95E1F7CE010E94A4
:101980001F16DF91CF9108958091A101882339F02E
:101990008091730287FF03C00E94A00C08950E94EB
:1019A0008E0C089508950E94D20C089590917402AF
:1019B00092FF11C098E0899F90011124622B6093DF
:1019C0001B020E94290880911B02869586958695A8
:1019D0000E94D30C08950E942908089510921B02BA
:1019E00080E00E94D30C089590911B02809589237A
:1019F00080931B02282F277069F4891759F0909162
:101A0000740292FF07C08695869586950E943908D4
:101A10000E94EE0C08959091740292FB222720F907
:101A2000281769F080FB92F99093740280917302F9
:101A3000909174020E94530D82E00E94F40C08956C
:101A40008091740282FB882780F991E089270E94A7
:101A50000B0D089581E00E940B0D089580E00E9417
:101A60000B0D08956FEF7FEF90E080E00E94971BD1
:101A7000089590E080E00E94631B21E0863E9E4F27
:101A800009F020E0822F089582E090E00E945B1B25
:101A9000089583E090E00E945B1B089584E090E04D
:101AA0000E94631B0895BC0184E090E00E94971B94
:101AB0000895AB01BC018FE090E00E948B1B08955C
:101AC000AB01BC0183E190E00E948B1B089560E0B4
:101AD00070E0CB010E94600D089560E070E0CB01E2
:101AE0000E94590D0E94670D0895A8E0B0E0EBE751
:101AF000FDE00C941E1B66EE7EEF90E080E00E94FD
:101B0000971B60E082E090E00E94791B81E090E00A
:101B10009093B9018093B80161E083E090E00E9466
:101B2000791B60E074E184E090E00E94971B60E024
:101B300086E090E00E94791B60E087E090E00E94E0
:101B4000791B40E050E0BA0188E090E00E948B1BD6
:101B500060E084E290E00E94791B60E087E190E021
:101B60000E94791B60E08CE090E00E94791B60E0AD
:101B70008DE090E00E94791B19821A821B821C82E0
:101B80001D821E821F82188648E050E068E170E0E6
:101B9000CE0101960E94691B40E050E0BA0180E24C
:101BA00090E00E948B1B0E946D0D2896E2E00C9441
:101BB0003A1B0E94750D0895682F8EE090E00E94F8
:101BC000791B0895A6E0B0E0E8EEFDE00C941C1B44
:101BD0000E94A0178C0180914802909149028017C1
:101BE000910781F019821A820E94A017682F4981FB
:101BF0005A81792F80E090E00E94D004109349022E
:101C0000009348022696E4E00C94381B0E94AC171F
:101C1000609350027093510280935202909353024A
:101C200060934C0270934D0280934E0290934F024A
:101C30000895089508950E94190E089508950E9428
:101C40001E0E08958BEC90E10E94FF110E941A0E67
:101C50000E941B0E089581E008950E942B0E0895A6
:101C60000E942B0E0895089508950E94330E0E943D
:101C7000340E08950E94390D811102C00E94D90DC1
:101C80000E94440D809354020E944E0D9093740262
:101C9000809373020E9422120E94490D90E00E94DC
:101CA000ED078091B6019091B7010E940E0808954A
:101CB0000E9497170E946B110E943A0E0E94A40482
:101CC0000E941F0E0895A6E0B0E0E9E6FEE00C9445
:101CD000151B0E942D0E81110AC00E94E20D0E9468
:101CE000DE150E94B7042696EBE00C94311B0E948F
:101CF0007B1110914A0280E00E94D510181307C092
:101D000010914B0281E00E94D510181731F3809199
:101D1000540281FD0E94DB100E94300EC82E8AE41E
:101D2000A82E82E0B82E10E099249394812F0E946F
:101D3000D510082FF50181915F01081729F1D02EE8
:101D4000D826F12CEE24E3948E2D8D21A9F0CC2001
:101D500099F0F9821A830E94A0179C838B839D823D
:101D600091E08E2D802309F490E049815A816B81A6
:101D70007C818D810E94D004F394EE0CF3E0FF127D
:101D8000E3CFF50131970083113019F40E94060E5C
:101D9000A6CF11E0CBCF1F93CF93DF930E94DA0F32
:101DA000EC01C11582E5D80708F03FC0C11590E5E8
:101DB000D90708F0C2C0C83ED105C0F4C03ED10565
:101DC00080F4C53AD10548F4C430D10550F4C1308F
:101DD000D10539F0D0E0C0E004C0CD3CD105D0F34E
:101DE000D065CE01DF91CF911F910895C11580E498
:101DF000D80708F053C0C11590E2D90708F0B7C062
:101E0000C11581E0D80730F38D2F0E947C10182F68
:101E1000CE0199270E94DA0FC12FD0E0DC2FCC270A
:101E2000CC27DF71C82BD92BDCCFC03892E5D9077E
:101E3000A8F4C03682E5D80708F063C0C03492E544
:101E4000D90708F049C0C03282E5D80788F1CF71C0
:101E5000D0E0DC2FCC27C16FD06AC3CFC03C92E565
:101E6000D90780F48C2F8F71C03AD24508F45EC038
:101E70000E947C10C82FD0E0DC2FCC27CC27DF714C
:101E8000D062AFCFC03E82E5D80708F0A3CFDC2FE9
:101E9000CC27CC27DF71C06FD06AA3CFCE019927A2
:101EA0000E94DA0FCC27DF70C82BD92BD06A99CFCC
:101EB0002C2F2695269590E2299F900111248C2F96
:101EC0008370C1E0D0E002C0CC0FDD1F8A95E2F73D
:101ED000C22BD32BDD6885CF2C2F26952695277016
:101EE00080E2289F900111248C2F8370C1E0D0E004
:101EF00002C0CC0FDD1F8A95E2F7C22BD32BDC6822
:101F000070CF2C2F26952695277090E2299F90015F
:101F100011248C2F8370C1E0D0E002C0CC0FDD1FF4
:101F20008A95E2F7C22BD32BDA685BCFC82FD0E0BB
:101F3000DC2FCC27C46FD06A54CF8C2F8F710E94B6
:101F40007C1055E0D695C7955A95E1F7CF70D0E053
:101F5000DC2FCC27282F30E084FF05C044E0220F7F
:101F6000331F4A95E1F7C22BD32BD0693ACF8D2F7F
:101F70008F710E947C10182FCE0199270E94DA0FD2
:101F8000C12FD0E0DC2FCC27CC27DF71C82BD92B79
:101F900077CF462F723030F4633020F4672F0E94E1
:101FA0003403089590E080E008950E94C90F0E94D4
:101FB000CB0E089582389105B9F1B0F481339105C3
:101FC00009F47DC048F48932910509F46DC08A3264
:101FD000910509F47BC008958533910509F45FC02C
:101FE0008933910509F10895833E9105D9F138F4BB
:101FF000803E910529F1823E910579F10895863E52
:102000009105D9F1873E910509F43EC0843E9105C2
:1020100041F52091740221FF24C08091730284FD58
:1020200019C087EE90E0089520917302237009F0A3
:102030005AC02091740223FF14C089E290E00895F1
:102040002091730220FD38C03091740230FF09C026
:1020500024FF43C090E080E008952091730222FDA8
:10206000F7CF08952091730222FD3AC03091740297
:1020700030FD39C024FFF5CFEDCF2091730223FF4F
:10208000F0CF24FDE7CFCDCF2091730223FD2EC0EA
:102090003091740231FFEECF84EE90E008952091EC
:1020A000730225FFDECFC9CF2091730225FD21C029
:1020B0002091740223FFD5CF89E390E0D2CF209105
:1020C000730226FFCECF8AE290E00895209173023A
:1020D00026FFC7CF81E390E0089583EE90E0089556
:1020E00082EE90E0089580EE90E0089586EE90E014
:1020F000089585E390E008959091730292FF10C0D7
:1021000041E0282F2471243009F040E031E0282FED
:102110002871283009F030E0431711F02CE08227B5
:1021200093FF10C041E0282F2471243109F040E0D2
:1021300031E0282F2871283109F030E0431711F0E1
:102140002CE082273091740230FF10C051E0282F1C
:102150002171213009F050E041E0282F287128300A
:1021600009F040E0541711F029E0822731FF10C038
:1021700041E0282F2171213109F040E031E0282F82
:102180002871283109F030E0431711F029E0822747
:1021900094FD877E089580E0089508950E94CD10F3
:1021A000089508950E94D1100895E82FF0E0E958AD
:1021B000FD4F80810895089580EA8A95F1F708958A
:1021C00000C008950E94DC100895F894E82FE2956D
:1021D000EF70F0E031A1282F2F7081E090E001C076
:1021E000880F2A95EAF7982F9095932391A392A1AF
:1021F000892B82A37894089581E30E94E51080E3FF
:102200000E94E51080E60E94E51081E60E94E5103C
:1022100082E60E94E5100895B0E0A0E0E2E1F1E17D
:102220000C94181BEC01D62E062F10E0C80189551E
:102230009E4F7C01FC0180818F3F09F445C0F894DA
:10224000E82FE295EF70F0E091A18F7021E030E08F
:1022500001C0220F8A95EAF7892F822B81A382A1E0
:102260002095282322A378940E94E010E4EAF1E06C
:1022700047EA51E031E0C12C21912F3F51F1A22FCB
:10228000A295AF70B0E090968C9190E02F7002C054
:10229000959587952A95E2F780FD1BC0832FC82A64
:1022A000330F4E175F0741F7F70180818F3F11F021
:1022B0000E94E51061E0C11001C060E08D2D0E9418
:1022C000E210C00FD11FC882CDB7DEB7E8E00C9492
:1022D000341B80E0E4CF0E94FC1010927802109230
:1022E0007702109276021092750282E00E94B1117C
:1022F0000E94CE100895A2E0B0E0E1E8F1E10C9474
:102300001D1B1A82198260E0CE0101960E940C11F9
:1023100061E0CE0101960E940C1142E050E0BE0146
:102320006F5F7F4F85E792E00E94451B21E0009799
:1023300009F420E0892B31F089819A81909376020B
:102340008093750242E067E772E085E792E00E94C1
:10235000B211182F0E94D210812F2296E3E00C9424
:10236000391B0895B0E0A0E0E8EBF1E10C94181BF4
:102370006C017B01042FC22F222379F081E080932E
:1023800057020E94A017909356028093550280E056
:10239000CDB7DEB7E8E00C94341BD0915702DD23B3
:1023A000B1F380915502909156020E94B81705979B
:1023B00070F310E0A801B601C7010E94451B892BEC
:1023C00031F0A801B601C7010E94521BCD2F109217
:1023D00057028C2FDDCF0E943C180E94580E0E949D
:1023E0004D1808950E943F170E942C180E94220E3B
:1023F0000E94EB110E945B180E94350EFBCF909358
:10240000AB018093AA0108950E94320D089580E0E7
:102410000E94D510817008950E947B112FEF86E7EE
:1024200091E0215080409040E1F700C000000E9400
:102430007B110E940712882321F00E9404120E943F
:10244000EB1708950E940C120895CF93DF93EB01D0
:1024500086319C4711F50E941C0C9D81992399F0AF
:102460008A7A91E009F490E090935802811109C0B2
:1024700089E20E94D8160E94C40C80E0DF91CF91BF
:10248000089585E3F6CF80915802811104C089E256
:102490000E94EF16F0CF85E3FBCF81E0EFCFCF9323
:1024A000DF93EC01FB018581882309F4D2C09E01F2
:1024B00030572332310508F0B2C00E944E0D909380
:1024C000740280937302FE01E150F047E232F1059D
:1024D00020F4E554F44E0C94081B80917302816043
:1024E0008093730293C08091740288608093740219
:1024F0008DC0809173028260F3CF809173028460FB
:10250000EFCF809173028860EBCF8091740281607D
:10251000EDCF809174028260E9CF80917302806177
:10252000DFCF809173028062DBCF80917302806481
:10253000D7CF0E94A007809173028068D1CF80918D
:1025400073028C60CDCF809174028360CFCF809175
:1025500073028E7FC5CF80917402877FC7CF809131
:1025600073028D7FBDCF809173028B7FB9CF809135
:102570007302877FB5CF809174028E7FB7CF809131
:1025800074028D7FB3CF809173028F7EA9CF80912B
:1025900073028F7DA5CF809173028F7BA1CF0E94A4
:1025A000A007809173028F779BCF80917302837F06
:1025B00097CF809174028C7F99CF8091730282FBB8
:1025C000992790F921E0922790FB82F990FB83F9FB
:1025D00087CF80917402982F909591708E7F892B70
:1025E00090FB81F983CF90917302892F8F7B96FFA7
:1025F000806476CF0E94A00790917302892F97FB89
:1026000087F980586DCF81E00E94DC0D80917302C4
:10261000909174020E94530D0E94A00780E0DF9108
:10262000CF91089580E0F0CF90917302892F8F7E33
:1026300094FF806155CF90917302892F8E7F90FF18
:1026400081604ECF90917402892F877F93FF8860BD
:102650004DCF81E0E4CFB0E0A0E0E1E3F3E10C9402
:10266000171BE82FF0E0E65BFE4FB490282F26956D
:102670002695269530E0F901E651FE4F04918770CA
:1026800010E0082E02C0159507950A94E2F7017034
:102690001127F901E652FE4FE490F12C082E02C0FA
:1026A000F594E7940A94E2F791E0E922FF24F90116
:1026B000E653FE4FC491D0E002C0D595C7958A95E8
:1026C000E2F7C170DD27C62ED12C0115110549F5A1
:1026D000E114F10431F086EE0E940905C60100976D
:1026E00071F5B6018B2D0E944805C601009779F55A
:1026F000E114F104A1F50115110531F081EE0E94FC
:102700002F05C6010097C9F5CD2B31F08CE20E9450
:102710006005C114D104C9F5CDB7DEB7E9E00C946A
:10272000331B81EE0E940905C601009789F2EFE98B
:10273000FFE03197F1F700C000000197F6CFEFE915
:10274000FFE03197F1F700C000000197C8CFEFE933
:10275000FFE03197F1F700C000000197C7CF86EE88
:102760000E942F05C601009731F2EFE9FFE0319793
:10277000F1F700C000000197F6CFEFE9FFE03197D5
:10278000F1F700C000000197BDCF8FE99FE00197EE
:10279000F1F700C0000091E0C91AD108BACF60E09B
:1027A0000E942B130895EF92FF920F931F93CF93E4
:1027B000DF938C01F62E8AE0E82EF80184918823BD
:1027C00009F454C0813009F04DC0E8012196FE01A2
:1027D0008491813091F42196FE0184910E946005DC
:1027E0008E010F5F1F4F8F2D815038F3EFE9FFE00F
:1027F0003197F1F700C00000F7CF823039F4E801DB
:102800002296FE0184910E940905EACF833039F4B3
:10281000E8012296FE0184910E942F05E1CF8430C9
:10282000F9F6E8012296FE01249190E080E0FE0195
:1028300031962053330B2A30310548F0019780F24E
:10284000EFE9FFE03197F1F700C00000F7CFE89E15
:10285000A001E99E500D1124C901840F951F2491F8
:10286000EF01E5CF0E94CF13E801BACFCDB7DEB7B5
:10287000E6E00C94361B0F931F93CF93DF93C42F86
:10288000D22FFC0185818823C9F040935B020E940E
:10289000A01790935A028093590280E28C0F8830DF
:1028A00040F4C77081E001C0880FCA95EAF70E9422
:1028B0006905DF91CF911F910F91089510915B02EF
:1028C000141332C08091590290915A020E94B81795
:1028D000883C910548F5C0E2CD0F1D17B9F080E2A4
:1028E000810F883040F4177081E001C0880F1A957D
:1028F000EAF70E947005C83048F481E09D2F977078
:1029000001C0880F9A95EAF70E946905802F0E94FE
:102910006005C83070F6D77081E001C0880FDA9585
:10292000EAF70E947005C5CF80E28C0F883008F668
:10293000C77081E001C0880FCA95EAF7F2CF0F9304
:10294000DB0188519C4787309105A0F5FC01E352DB
:10295000F44E0C94081B06E221EE41EE6AE17CE79E
:10296000CD010E943B1480E00F91089507E225EE0F
:1029700045EE6BE17CE7F4CF06E221EE40EE68E144
:102980007CE7EECF07E225EE44EE69E17CE7E8CF95
:1029900006E221EE42EE6CE17CE7E2CF07E225EEB3
:1029A00046EE6DE17CE7DCCF08E221E045EE6EE12A
:1029B0007CE7D6CF15968C91882319F010925B0294
:1029C000D3CF81E0D1CF4115510511F0FA0109951E
:1029D0000895CF93DF93EC014A855B856E857F85F3
:1029E0000E94E3148B810E94380C8C810E94250C7C
:1029F0000E94C40C86E0FE0111928A95E9F7DF91EE
:102A0000CF910895CF93DF93EC018D8181FD11C0AB
:102A100082608D838B810E94320C8C810E941F0CFE
:102A20000E94C40C488559856E857F85CE010E9421
:102A3000E31410925F0210925E028D8180FD03C04C
:102A4000CE010E94E914DF91CF910895CF93DF93D7
:102A5000EC018A81823039F4FB0182810E941D08D9
:102A60008D8182608D83DF91CF910895DB01FC0120
:102A70008281813029F48D919C910E947203089586
:102A8000823039F41396ED91FC91149712968C9143
:102A900009950895FC018281813029F4FB01808130
:102AA00091810E9488030895CF93FB01C581CC23B7
:102AB000F1F0E0915E02F0915F023097D9F0E817F3
:102AC000F907C1F0FF2724E0EE0FFF1F2A95E1F779
:102AD000DF01AB5FBE4F2C9124602C93E050FF4F81
:102AE00091838083CF010E9402150E943F0C8C2F9E
:102AF000CF910895C0E0FBCF0F931F93CF93DF9347
:102B00008C0197558F3F910509F0C8F5C8019927A9
:102B100024E0880F991F2A95E1F7EC01C050DF4FA0
:102B2000FB012581FC01EB5FFE4F808120FB80F9DA
:102B30008083222351F10E94A01790935D0280931D
:102B40005C028A818F5F8A830E941C0C8B830E94A7
:102B50002F0C9B81892B8B830E94420C8C834E818E
:102B60005F816E857F85CE010E94E3148D8181FF98
:102B700002C010E000E010935F0200935E0281E06B
:102B8000DF91CF911F910F9108954C855D856E85E2
:102B90007F85CE010E94E3148D8181FFF0CFCE01AD
:102BA0000E94E91480915E0290915F028017910764
:102BB00031F710925F0210925E02E1CF80915E02C7
:102BC00090915F02892BE9F080915C0290915D0207
:102BD0000E94B817893C9105A0F080915E02909107
:102BE0005F02992724E0880F991F2A95E1F7FC01DD
:102BF000EB5FFE4F208122FD04C080509F4F0E945A
:102C00000215089590936102809360020895E09107
:102C10006002F0916102309729F00190F081E02D7F
:102C20000995089580E00895E0916002F0916102B5
:102C3000309721F00280F381E02D09950895E0910D
:102C40006002F0916102309739F026E0DC012C93AC
:102C50000480F581E02D099508952091950130912A
:102C600096012E5F3F4F8091A101882379F08091DA
:102C7000730287FF0BC020919301309194012E5F66
:102C80003F4F9EE180E0915018F4089596E0FACF0E
:102C9000F90141919F014423B1F38F5FF4CF882361
:102CA00021F19091A101992311F19091730297FF65
:102CB0001EC0E82FE695E695E695EE31B0F420913A
:102CC000930130919401E20FF32FF11D228130E046
:102CD000877041E050E002C0440F551F8A95E2F72B
:102CE0002423352381E0232B91F480E00895209163
:102CF000950130919601F9013296285F3F4F9191ED
:102D0000981721F0E217F307D1F7EFCF81E008958C
:102D10009C01FC0132969FEF80E04191461751F0F3
:102D20009F3F19F4411101C0982F8F5F8630A9F79A
:102D30009F3F09F40895290F311D97FD3A95F90138
:102D400062830895FC01329608962191261303C0F0
:102D5000DF0111971C92E817F907B9F70895E62FDC
:102D6000E695E695E695EE3168F4E80FF92FF11D4A
:102D7000677021E030E001C0220F6A95EAF7828196
:102D8000822B82830895E62FE695E695E695EE314F
:102D900070F4E80FF92FF11D677021E030E001C0F9
:102DA000220F6A95EAF720958281282322830895CD
:102DB000682F8091A101882359F08091730287FFC9
:102DC00007C080919301909194010E94AF160895DD
:102DD00080919501909196010E9488160895682F20
:102DE0008091A101882359F08091730287FF07C069
:102DF00080919301909194010E94C316089580914F
:102E00009501909196010E94A21608958091A101CA
:102E1000882379F08091730287FF0BC0E0919301C2
:102E2000F091940132968EE1DF011D928A95E9F7C7
:102E30000895E0919501F0919601329686E0F4CFE5
:102E4000089508950E9421170895089508950E94F5
:102E5000201708950E9425170E947B110E942617B3
:102E600080E00E94D51091E0811107C081E00E94AE
:102E7000D51091E0811101C090E0892F0895089547
:102E80001F921FB61F9211248F939F93AF93BF93EE
:102E900080916202811113C08091790290917A022F
:102EA000A0917B02B0917C024196A11DB11D80933F
:102EB000790290937A02A0937B02B0937C02BF9137
:102EC000AF919F918F911F901FBE1F901895809179
:102ED0006502882331F10E9487041092620288E122
:102EE00090E020E40FB6F894A895809360000FBEA0
:102EF0002093600083B7817F846083BF83B7816044
:102F000083BF7894889583B78E7F83BF0FB6F8947C
:102F1000A8958091600088618093600010926000A5
:102F20000FBE08950E94A0070E948C04089582E0BD
:102F300084BD93E095BD9AEF97BD80936E00089590
:102F40002FB7F8948091790290917A02A0917B0238
:102F5000B0917C022FBF08952FB7F8946091790249
:102F600070917A0280917B0290917C022FBF08952C
:102F70009C014FB7F8948091790290917A02A091C8
:102F80007B02B0917C024FBF821B930B0895789413
:102F90001F921FB61F9211248F939F93AF93BF93DD
:102FA0008091790290917A02A0917B02B0917C028B
:102FB0000196A11DB11D8093790290937A02A0938E
:102FC0007B02B0937C02BF91AF919F918F911F9034
:102FD0001FBE1F90189588E198E00FB6F894A89549
:102FE000809360000FBE90936000A895F894D8E09D
:102FF000CEEF28E3299320E0299314BEFFCF089554
:1030000088E198E00FB6F894A895809360000FBE11
:1030100090936000FFCF8091A402882369F0109202
:10302000A4020E94A01790936402809363021092FE
:103030006502809165020895809165028111F9CF42
:1030400080916302909164020E94B817069788F3FA
:1030500081E080936502EDCF0E94A01790936402F7
:103060008093630280E890E00FB6F894809361004B
:10307000909361000FBE08950E94ED1A539A80E06C
:10308000815019F4539878940895A895EFE9FFE0DA
:103090003197F1F700C00000F3CF0E9403190E949E
:1030A00002162FEF80E792E0215080409040E1F738
:1030B00000C000000895CF930E940B18CCE081114E
:1030C0002BC00E94FD198091AA02882329F08091CB
:1030D000880284FD0E94630ECF9108950E946717B5
:1030E0000E942A178823C1F0F8949AB15B9A892F1D
:1030F0008C608AB98BB18C278BB92FE738E381E0DC
:10310000215030408040E1F700C000008BB18C2797
:103110008BB99AB95B9878940E940B188111DECF15
:103120000E949217CECF809172020895FF920F9362
:103130001F93CF93DF93D82F8B01F42EC5E0D130AE
:1031400039F0D33071F0CDB7DEB7E5E00C94371B22
:103150008091880284FF0EC06F2DC8010E94F31970
:10316000F2CF8091C10284FF05C06F2DC8010E947B
:10317000F819E9CF0E94FD198FE19EE40197F1F75C
:1031800000C00000C150D9F6DECFEF92FF920F933E
:103190001F93CF93DF93082F7B01EA0183E0D6953D
:1031A000C7958A95E1F710E048E050E0B701802F1D
:1031B0000E94961888E0E80EF11C1F5F1C171D0680
:1031C00098F3CDB7DEB7E6E00C94361B40E250E052
:1031D000BC0183E00E94C5180895CF93DF93EC01F2
:1031E00048E050E0BC0181E00E94C51888E0FE0183
:1031F000A9E6B2E001900D928A95E1F7DF91CF91B7
:1032000008950895089587E991E00895FC0180816B
:103210008076803241F481818330A9F130F48130AD
:10322000F1F0823041F180E008958A3079F18B30FD
:1032300089F18930C1F7828193818115924069F4C7
:1032400084819581892B49F481E08093680286818D
:10325000978190936702809366028FEF089584812F
:103260009581892B01F789E692E09093A6028093DD
:10327000A50288E0089581E792E09093A6028093EA
:10328000A50281E0089581EA91E0F7CF83818093E0
:103290007102C9CF84819581892B29F6828180931F
:1032A000A101C1CFFC018091660290916702892B38
:1032B00061F080916802813041F4908190937202B4
:1032C000109267021092660208958FEF0895089594
:1032D000FC019381933029F130F4913091F09230D8
:1032E000C1F080E008959132D9F19232D1F7848112
:1032F0009581009709F446C0019799F78DE792E010
:103300000AC085E392E09093A6028093A50282E131
:1033100008958AEF91E09093A6028093A5028BE333
:10332000089582818130A1F0882351F08230C9F65E
:1033300087E492E09093A6028093A5028AE1089523
:1033400089E792E09093A6028093A50284E0089515
:1033500083E692E09093A6028093A50284E108950B
:1033600084819581009731F0019709F0BACF85E209
:1033700092E002C08CE092E09093A6028093A502B6
:1033800089E0089588EB92E09093A6028093A502CD
:1033900084E408951F93CF93DF93E82F792F162F9E
:1033A000EA01888184FF1CC0298188E828272983B5
:1033B000CE010296DC012E2F372F512F5E0FF9011F
:1033C00021912D939F01452F4E1B1416C4F3612F9D
:1033D0000E94B2011C5F1883DF91CF911F91089565
:1033E0008AE58883E5CF48E852E00E94CA1908952B
:1033F00041EC52E00E94CA190895CF93DF93609187
:10340000A702635067FD12C08091A302CCE0D0E018
:10341000C81BD109C555DD4F8091A202803108F04B
:1034200054C0CE010E9467191092A7028091A30197
:1034300084FF3EC08091A2018F3FD1F1C82F893017
:1034400008F0C8E0982F9C1B9093A20190917D02F8
:1034500028E8922790937D028823E9F08091A502C5
:103460009091A6022091A10226FFAEC0FC012C2F54
:10347000AEE7B2E034913D9331962150D9F79C01EB
:103480002F5F3F4F8FEF8C0F820F932F911D9093E3
:10349000A6028093A5026C2F8EE792E00E94B201F3
:1034A000CC5FCC3019F08FEF8093A201C093A301C1
:1034B00084E199B19C7031F48150D9F71092A8023F
:1034C0001092A002DF91CF9108958D3209F069C06A
:1034D000683009F0A9CF83EC80937D028AE5809360
:1034E000A3011092A1028881807671F0CE010E9422
:1034F00006198F3FC1F4988197FD8E8190E89093D3
:10350000A1028093A20190CF2A8110928602998114
:10351000911111C01092870226E832E082E03093C8
:10352000A6022093A5029F819111EBCF9E8198174F
:1035300040F7892FE6CF953029F42093A80226E89A
:1035400032E0EDCF963099F49B81913021F4CE0199
:103550000E94681908C09230D1F39330C1F39132C0
:10356000B1F39232A1F390E49093A102C2CF9830CC
:1035700089F0993019F42093AA02E1CF9A3071F0C2
:103580009B30E9F69BE4909389029093C20290935A
:103590009502D5CF2AEA32E081E0C1CF26E832E0B9
:1035A000FBCF8091A10287FF3FCFCE010E9452192D
:1035B0008F3F21F48EE18093A30136CF882309F455
:1035C00033CF1092A20130CFDC012C2FEEE7F2E0D6
:1035D0003D9131932150E1F752CFCF93DF93E9E64C
:1035E000F0E0808188608083E99AC8E8D2E08BE4CB
:1035F0008983A1ECB2E011968C931197E4E9F2E093
:1036000081838AE588838C938083DF91CF910895AD
:10361000EE0FFF1F0590F491E02D09942F923F9239
:103620004F925F926F927F928F929F92AF92BF92D2
:10363000CF92DF92EF92FF920F931F93CF93DF937E
:10364000CDB7DEB7CA1BDB0B0FB6F894DEBF0FBEDB
:10365000CDBF09942A88398848885F846E847D8428
:103660008C849B84AA84B984C884DF80EE80FD802A
:103670000C811B81AA81B981CE0FD11D0FB6F894A0
:10368000DEBF0FBECDBFED010895FB01DC0104C01C
:103690008D910190801921F441505040C8F7881B4A
:1036A000990B0895FB01DC0102C001900D9241507D
:1036B0005040D8F70895F999FECF92BD81BDF89A90
:1036C000992780B50895A8E1B0E042E050E00C945D
:1036D0009F1BDC01A40FB51F4150504048F0CB01A7
:1036E000840F951F2E910E947A1B41505040D0F7B5
:1036F0000895262FF999FECF92BD81BDF89A0197C2
:1037000000B4021639F01FBA20BD0FB6F894FA9A29
:10371000F99A0FBE08950396272F0E947A1B0E94E4
:10372000791B252F0E947A1B242F0C947A1B01965B
:10373000272F0E947A1B0C94791BDC01CB01FC0122
:10374000F999FECF06C0F2BDE1BDF89A319600B4FA
:103750000D9241505040B8F70895F894FFCFB80546
:10376000B80508060806E705E705E705E7056D065D
:10377000DE06ED06ED06A7121B13AF1279127D12BD
:10378000B3128112B712C3128D1214139112C71201
:103790009512CB12F3129912CF12FA129F12D51270
:1037A000DD128512BB128912BF12A312D912E912BF
:1037B000031312137312AB122213BC14C214AB14F2
:0837C000B614C814CE14D41491
:1037C800000000000000261536154A1500008E017D
:1037D800000000000000261536154A150000890172
:1037E800000000000000261536154A150000840167
:1037F800000000000000261536154A1500007F015C
:10380800000000000000261536154A1500007A0150
:10381800000000000000261536154A150000750145
:10382800000000000000261536154A15000070013A
:103838001E02071D081100061D082700051D0806A1
:1038480000041D081700031D081200021D081500BA
:10385800011D081E023E029318ED18E61802190110
:0A3868001901FF5A6061623130005F
:00000001FF
