:100000000C9484010C94A1010C94BC010C94A101EA
:100010000C94A1010C94A1010C9425180C94A1013D
:100020000C94A1010C94A1010C94A1010C94A101C8
:100030000C94A1010C94A1010C94AC180C94A10196
:100040000C94A1010C94A1010C94A1010C94A101A8
:100050000C94A1010C94A1010C94A1010C94A10198
:100060000C94A1010C94A1014C6F7772792050611E
:100070007263616465202F2F2030362F30362F3287
:10008000303234204020373A3030504D0A004A6F29
:10009000696E20757320666F722074686520726FB8
:1000A0007431336C61627320756E6F666669636963
:1000B000616C204253696465732054616D706120E6
:1000C0006166746572206166746572207061727415
:1000D00079210A00436F6E67726174756C6174698F
:1000E0006F6E73210A00180005001C0014002152D5
:1000F00027001700040082521000130004000500BE
:1001000016000C008352070008000F000077120051
:100110001A0015001C0000000000000000002A2B3F
:1001200028000000000000000000000000000000A7
:100130000029000000002C1E342021222434262710
:10014000252E362D3738271E1F2021222324252631
:100150003333362E37381F0405060708090A0B0CFF
:100160000D0E0F101112131415161718191A1B1C47
:100170001D2F3130232D350405060708090A0B0C05
:100180000D0E0F101112131415161718191A1B1C27
:100190001D2F3130354C0000000000000000000031
:1001A000000000000000000000000000000000004F
:1001B000000000000000000000007E0F00D4FFFFE0
:1001C000FFC70000007809023B00020100A0FA0905
:1001D0000400000103010100092101010001224482
:1001E0000007058103080001090401000103000064
:1001F00000092101010001227B000705830308009B
:10020000011201100100000008EDFEEFBE00010127
:100210000200011A0372006F007400630030006E68
:1002200000200062006100640067006500000014A7
:100230000372006F007400310033006C00610062D3
:1002400000730000000403090405010902A10185EF
:10025000020901A1000509190129081500250195C8
:1002600008750181020501093009311581257F9545
:10027000027508810609381581257F950175088169
:1002800006050C0A38021581257F9501750881063F
:10029000C0C005010980A101850319012AB7001515
:1002A0000126B700950175108100C0050C0901A158
:1002B00001850419012AA002150126A002950175E5
:1002C000108100C005010906A101050719E029E711
:1002D00015002501950875018102950175088103B6
:1002E0000507190029FF150026FF009506750881EE
:1002F00000050819012905150025019505750191CD
:1003000002950175039103C011241FBECFEFD8E001
:10031000DEBFCDBF11E0A0E0B1E0E2ECF9E302C046
:1003200005900D92AC38B107D9F722E0ACE8B1E006
:1003300001C01D92AE3FB207E1F70E9405120C9476
:10034000AA1C0C940000A82FB92F80E090E041E097
:1003500050EA609530E009C02D91822797958795E6
:1003600010F084279527305EC8F36F5FA8F30895D7
:10037000EADF8D939D930895CF93CFB7CF93DF930B
:10038000C3954B9BE9F74B9B10C04B9B0EC04B9BFF
:100390000CC04B9B0AC04B9B08C04B9B06C0C09136
:1003A000D502C395C093D5028EC06F93C091D4027D
:1003B000DD27C452DD4F2F9365E54B9B03C02F9182
:1003C0006F91E1CF0F931F934F9320E040E15F9334
:1003D00009B10C7003FB27F93F9350E03BE039C0B3
:1003E0001C7040642F77012F5F5F1EC0406819B1F9
:1003F0001C702F7752501FC0406409B12F770C70CA
:10040000D1F15F5F00C023C0406219B12F771C702B
:1004100091F15F5F00C025C00C701027515012F49D
:100420005D5F0000115027952C3F19B1C8F61C7074
:100430000127015027952C3FC8F64227499309B15F
:100440000C7010274F73115027952C3FA8F6469536
:10045000469519B11C7079F00127015027952C3F62
:1004600098F66B5A60F3315009B1B0F600C012E053
:100470001CBB00271CC03B503195C31BD04012E071
:100480001CBB0881033C21F10B3411F12091D102F6
:100490001981110F1213EDCF4A81441F093679F1EA
:1004A0000D3211F0013E29F74F7009F0042F00932F
:1004B000DA023F915F914F911F910F912F916F91B0
:1004C000CCB3C1FD5DCFDF91CF91CFBFCF91189558
:1004D0002091DA02222369F31091D802112309F046
:1004E00049C034300AF448C03093D8022093D30274
:1004F0001091D4023BE0311B3093D4023DC00091F7
:10050000D8020130BCF50AE54F7049F4309113016F
:1005100034FD33C000931301CEEAD2E032C0433041
:1005200059F0443091F03091B90234FD26C0009367
:10053000B902CAEBD2E025C03091F20234FD1DC0F1
:100540000093F202C3EFD2E01CC03091C50234FD2B
:1005500014C00093C502C6ECD2E013C0052710E01A
:1005600000C000000BB91AC0052710E0221F1DC0F3
:1005700010E021C04AE502C032ED432FC4E1D0E0D3
:1005800032E01AB11C605B9A0BB11AB95CE020E84A
:1005900065E320FF05270BB9279517951C3FF0F65B
:1005A0006695B8F7B1F720FF05270BB92795179582
:1005B0001C3FD0F62795179517FF052700001C3F15
:1005C0000BB9B0F629913A9519F7037F1091D9022A
:1005D000110FC651D0400BB911F01093D10212E0A7
:1005E0001CBB08601AB1137F402F437F54E05A951B
:1005F000F1F70BB91AB94BB95CCF81159747E1F404
:10060000FB0185818823C1F060E084ED90E00E94C9
:10061000D415FFEF23ED80E3F15020408040E1F757
:1006200000C0000060E08EE890E00E94D41560E019
:1006300088E690E00E94D41581E008958430B8F4F3
:100640006230A8F4433098F450E093E0699F400D85
:10065000511D1124FA0196E0899FE00DF11D11242E
:10066000EE0FFF1FEA51FF4F85919491089581E0AD
:1006700090E008950E941E03089581E008950E946D
:100680003D03089581E008950E94FD0208950895B4
:100690000E9447030895A6E0B0E0E1E5F3E00C9482
:1006A000061C49835A839E833091930189819A81E4
:1006B00031111AC03E81332399F0222389F00E9420
:1006C000DB08182F682F89819A810E94B7086981F9
:1006D0007A81812F0E949D0F2696E3E00C94221CC4
:1006E0000E94C908182FF3CF0E94DB0869817A8124
:1006F000F1CFFC01262F4081518162817381848179
:1007000095810E944B030895CF93DF93EC0161E044
:100710000E947903BE010E943F03DF91CF910895AB
:10072000CF93DF93EC0160E00E947903BE010E9449
:100730004803DF91CF91089508950E948C070E948D
:100740009C032FEF84E39CE0215080409040E1F730
:1007500000C0000008950E949D030E94D0180895D3
:100760000E949D030E94E51808950F931F93CF9355
:10077000DF938C0161E00E947903EC01B8010E94D3
:100780004403811106C080E0DF91CF911F910F914A
:100790000895B801CE010E94CA168823A1F3B801BA
:1007A000CE010E949B14882371F3B801CE010E94F0
:1007B0003C16882341F3F8018581882361F0C3301A
:1007C000FCE7DF07E9F058F4C115ECE7DE07A9F014
:1007D000C130DC47B9F0C8010E944203D5CFCB3508
:1007E0008CE7D807A9F0CC35ECE7DE0771F0CA3505
:1007F000DC4789F70E94FB0CEECF0E94AB03C3CF0E
:100800000E94030D0E94B003BECF0E94F10CE3CF03
:100810000E94FF0CE0CF0E9407180E943204089546
:100820000E9436040E940C180895089581E00895EE
:100830000895CF93DF93D82F0E941604C82F8823E2
:1008400019F08D2F0E9418048C2FDF91CF910895FD
:100850000895CF93C82F0E9415048C2F0E9419046D
:10086000CF91089580E00E94290408950E941317F3
:100870000E9429040895CF930E941317C82F8091D6
:100880008E018C1779F0C0938E010E9491186093AD
:100890008F017093900180939101909392018C2F1E
:1008A0000E942904CF910895ADE0B0E0EAE5F4E0BC
:1008B0000C94071C488759876A877B878C879D879C
:1008C00091110E943F0C1F8286E0FE013896DE01E6
:1008D000119601900D928A95E1F78D8181110DC0DD
:1008E00029813A814B815C816D817E818F810E945B
:1008F000720B2D96E2E00C94231CCE0101960E940F
:1009000084038111EDCFF5CFFC012481213021F446
:10091000808191810E940D090895662329F00E942B
:100920009C120E946F1308950E94F612FACFCF9383
:10093000C82F8823B9F08CEF8C0F813AA8F46C2F64
:1009400080910001909101010E949517882329F060
:100950008C2F0E94FF0B0E94780C8C2F0E94F70BAB
:100960000E94780CCF91089580E28C0F883048F473
:10097000C77081E001C0880FCA95EAF70E94220C77
:10098000EFCFEBE5EC0FE33040F4F0E0E65BFE4F39
:10099000808190E00E943917E5CFE8E5EC0FEB315C
:1009A00050F4F0E0EE0FFF1FEC5EFE4F808191816E
:1009B0000E945E17D7CF83E38C0F833198F661E0F6
:1009C0008C2F0E948D04CECF882381F19CEF980F4D
:1009D000913A28F40E94FF0B0E94780C089590E24F
:1009E000980F983050F4877091E001C0990F8A9564
:1009F000EAF7892F0E94280CEFCF9BE5980F9330E0
:100A000028F490E080E00E943917089598E5980F47
:100A10009B3128F490E080E00E945E17089593E3F4
:100A2000980F933118F460E00E948D0408951F938D
:100A3000CF93DF93182FEB010E949704209739F48E
:100A4000812F0E94E404DF91CF911F9108958FE9D7
:100A50009FE00197F1F700C000002197EFCF70E011
:100A600060E0893311F460E570E00E941705089595
:100A7000882321F00E94220C0E94780C089588237C
:100A800021F00E94280C0E94780C0895B0E0A0E0AC
:100A9000ECE4F5E00C94001C6C01D62FC72FFC0190
:100AA0001581068102950F700E94180CE82E88238C
:100AB000E9F0E12E1123D1F08C2F807F803451F0AA
:100AC00080E28D0F8830F8F0011104C08C2F807EF9
:100AD0008032C9F08091A50282FF15C082E00E9499
:100AE000C50C0E94180C91E0E82EE926BC2EB294A9
:100AF0009FE0B922FBE0FB15B8F1EB2DF0E0E455E7
:100B0000F34E0C94F11BE12CF1CF0C2F0F70C07F32
:100B100011F00295007F112399F0002359F080E233
:100B20008D0F883010F0D11107C0802F0E94220C49
:100B30000E94780C8D2F5AC0802F0E94320CF8CF63
:100B40008D2F0E94E404002379F080E28D0F88301D
:100B500010F0D11104C0802F0E94280C03C0802FF8
:100B60000E94380C0E94780CEB2DE850FF0B349754
:100B700020F40E9413170E942904EE2089F00E949D
:100B8000140C80FD0DC0F60115820E940E0C0E940F
:100B90001508C6010E9453070E940E0C0E942508EA
:100BA000CDB7DEB7E9E00C941C1C2C2F2F70F22E71
:100BB000C07FC03219F0F29480EFF822DD2341F0BB
:100BC000D130D1F1112309F444C00023F1F0B2CFA8
:100BD0008091A50282FD15C0112359F0FF2029F054
:100BE0008F2D0E94220C0E94780C80E00E949704B6
:100BF000BBCF80E00E94E404FF2009F4B5CF8F2D25
:100C0000ABCF112369F0011104C08F2D0E9438056C
:100C1000ABCF013009F0A8CF8F2D0E94560CA4CF86
:100C20000111A2CF8F2D0E943F058F2D0E94620CD3
:100C30008F2D0E94460C98CF112321F0063008F02A
:100C400093CFE3CF053008F08FCF8F2D0E943F0563
:100C50008BCF0023D1F3D93349F43FEF87EE93E0F4
:100C6000315080409040E1F700C000008D2F0E947D
:100C7000E4047ACF8C2F86958695837069F0813055
:100C800009F072CF8D2F9C2F9370111102C080E05C
:100C900090E00E945E1768CF8D2F9C2F93701111EA
:100CA00002C080E090E00E9439175ECF612F8D2F47
:100CB0000E948D0459CF8C2F8370A1F5111154CF50
:100CC0004D2F429546954770440F440F2D2F2F709E
:100CD00030E0042E02C0220F331F0A94E2F790E0A6
:100CE00080E0D4FF09C08FE090E002C0880F991F18
:100CF0004A95E2F780959095C695C695C370822B6C
:100D0000932BC23049F058F4C13019F00E94E50726
:100D10002BCF0E94DC0728CF0E94EE0725CF0E9430
:100D2000D90722CF8695112311F08C2F817088234B
:100D300009F41ACF4D2F429546954770440F440F42
:100D40002D2F2F7030E0042E02C0220F331F0A9483
:100D5000E2F790E080E0D4FF09C08FE090E002C0AD
:100D6000880F991F4A95E2F780959095C695C6958C
:100D7000C370822B932BC23049F058F4C13019F064
:100D80000E945008F1CE0E944708EECE0E945908FA
:100D9000EBCE0E94FD07E8CECF70112329F08C2FF7
:100DA0000E9415088D2F32CF8D2F0E943F058C2F6A
:100DB0000E942508D9CED23F41F160F4D03FB9F06E
:100DC000D13F81F0112309F446C00111B3CE8C2F1D
:100DD0008F711FC0D33F01F1D43FA1F78091A502CD
:100DE00082FD24C08C2F8F71112311F312C01123A7
:100DF00041F0053008F0B8CE8C2F8F710E94370873
:100E0000B3CE063008F0B0CEF7CF8C2F8F71111112
:100E1000CFCF0E941508A8CE112329F08C2F8F71F7
:100E20000E940908A1CE0E9404089ECE112349F019
:100E3000CF718C2F0E94150863E08C2F0E94A70CA5
:100E400093CE81E00E94C50C023008F48DCE82E082
:100E50000E94C50C89CE002359F0D93309F006CF82
:100E6000EFEFF7EE23E0E150F0402040E1F7FCCE59
:100E70008C2F8F719DCF0F931F93CF93DF93EC0136
:100E8000688179818D810E9418098C010E94620815
:100E90000E94D807B801CE010E944605DF91CF918C
:100EA0001F910F910895CF93DF93EC018C818823DC
:100EB00099F0CE010E94B503811111C00E94180C57
:100EC000882351F08D81882339F08091A50282FF1B
:100ED00003C082E00E94C50CDF91CF910895CE013E
:100EE0000E943B07CE010E949003F6CF90E080E085
:100EF0000E94391790E080E00E945E170E943F0C2C
:100F00000E94780C0E948B130E946F1308950E9418
:100F1000070C0E94760708950E942F0C0E948707F5
:100F2000089592959F70963091F058F4925F9F705B
:100F3000923058F4803F19F030F4883E30F481E06C
:100F400008959A5FF4CF843FD1F380E00895883EFE
:100F5000B0F3813FD1F7F3CFFC012481222339F094
:100F6000808191810E940D090E949107089580E07F
:100F70000895A6E0B0E0EFEBF7E00C94071C26968E
:100F8000E2E00C94231CA7E0B0E0E9ECF7E00C945D
:100F9000071C2796E2E00C94231C08950E94CD07BD
:100FA00008950E94CE0790939B0180939A01089523
:100FB00008950E94D107089520919A0130919B01D4
:100FC000822B932B0E94D107089520919A01309192
:100FD0009B01822393230E94D107089520919A01B7
:100FE00030919B01822793270E94D10708950E9488
:100FF000CD0708950E94F70708950E94FA0790937D
:10100000990180939801089590E080E00E94FD0787
:10101000089521E030E0A90102C0440F551F8A95D0
:10102000E2F7CA010E94FD07089521E030E002C006
:10103000220F331F8A95E2F78091980190919901D0
:10104000822B932B0E94FD07089521E030E002C01F
:10105000220F331F8A95E2F72095309580919801F1
:1010600090919901822393230E94FD07089521E026
:1010700030E002C0220F331F8A95E2F78091980179
:1010800090919901822793270E94FD07089520914E
:10109000980130919901822B932B0E94FD070895AE
:1010A0002091980130919901822393230E94FD079A
:1010B00008952091980130919901822793270E94E9
:1010C000FD0708950895262F277091E001C0990F1C
:1010D0002A95EAF723E0769567952A95E1F7660F5A
:1010E000771F660F771FFA01E60FF71F50E040E009
:1010F000682F70E08191DF0111979B01042E02C0DF
:10110000369527950A94E2F72170219528272923FF
:1011100028272C934F5F5F4F4430510559F70895AE
:10112000A82FA77023E0969587952A95E1F7880F59
:10113000991F880F991FFB01E80FF91F50E040E04D
:1011400080E0219130E00A2E02C0369527950A945E
:10115000E2F721703327042E01C0220F0A94EAF728
:10116000822B4F5F5F4F4430510559F70895262F6A
:10117000923070F4833060F4682F70E083E0989FC1
:10118000600D711D112444E951E0822F0E94630813
:101190000895292F923068F4833058F490E064E980
:1011A00071E033E0239F800D911D11240E9490086F
:1011B000089580E00895B0E0A0E0E1EEF8E00C943E
:1011C000001C7C01009198011091990180919A0175
:1011D00090919B01082B192BCFE0D0E0CC24C39435
:1011E000D12CBC2EC6010C2E02C0880F991F0A9468
:1011F000E2F780239123892B49F4219790F7B12CB2
:101200008B2DCDB7DEB7E9E00C941C1CB7018C2FF9
:101210000E94A90F019789F3F3CFCF93DF93EC01DD
:101220000E94DB08BE010E94A90FDF91CF910895B3
:101230001F93CF93DF93EB0190919301992339F0A2
:10124000CB010E940D09DF91CF911F910895882352
:1012500069F0CB010E94DB08182F682FCE010E9495
:10126000B708BE01812F0E94A90FEDCFCB010E94CC
:10127000C908182FF6CF1F93CF93DF93C0919C011D
:1012800017E080919D018C1304C0DF91CF911F91D5
:101290000895D0E01C9FF0011D9FF00D1124E2562F
:1012A000FE4F208131814281538164817581868125
:1012B0000E94C3072196C770E4CF2091D6013091D8
:1012C000D7014091D8015091D9016091DA01709114
:1012D000DB018091DC010E94C3070895CF93DF9367
:1012E0008091DC01807F09F04DC08091DB01882373
:1012F00009F448C0E0919C0150919D01C091D70133
:10130000D091D6016091D8017091D90147E05E1764
:10131000C9F18E2F90E0E49FF0011124E256FE4FB8
:101320002481222391F1489FF001499FF00D11245F
:10133000DF01A256BE4F11962C9111972C1325C098
:101340002C912D1322C015962C91159721111DC09B
:1013500012962D913C91261B370B283C3105A8F4A1
:101360008091DC018F7080618093DC01EC55FE4F31
:1013700080818F708061808386ED91E00E945307A9
:101380000E943B09DF91CF910895FC013196E770EF
:10139000BECF482F20919C0190919D0157E02913C9
:1013A00002C080E0089530E0529FF001539FF00D9D
:1013B0001124E256FE4F8181681306C080814813D4
:1013C00003C085818111EECF2F5F3F4F2770E7CF9C
:1013D000A4E1B0E0EEEEF9E00C94FD1B8C0186E098
:1013E000F801DE011F9601900D928A95E1F7F80150
:1013F0008481E58096EDA92E91E0B92E9091DA01D5
:1014000091111FC08823D1F0EE20A9F0C8010E94DD
:10141000AC07F82E882379F087E0F801D501019018
:101420000D928A95E1F7C5010E9484040E946E091D
:101430000E945D095FC0C8010E945307FF24F39416
:1014400059C0C080D18082809380F090DB012091D0
:10145000D8013091D901A401421B530BFF2009F49C
:10146000F9C0483C510508F0A7C0882309F442C0E0
:101470009091D7018091DC01282F207F09F05CC07A
:101480009D1116C09091D601C91212C0E1104EC034
:101490008F7080618093DC010E945D0986ED91E090
:1014A0000E9453078091DC01F8018683F12C22C051
:1014B000E1103CC06D2D8C2D0E94C9096D2D8C2D25
:1014C0000E94C909E82E8111F1CFCF86D88A8F8575
:1014D00098890E940D09292F22952F70243078F4C5
:1014E0009F702230A8F09923B9F0F8019681907F7F
:1014F00099F4FE2C8F2D6496ECE00C94191C2A5F55
:101500002F70223068F0C8010E945307EF2CF1CFF2
:10151000992311F0882369F3805E883050F3F3CF6C
:10152000803F38F3815F833070F7E3CF8091DC0137
:1015300081608093DC01BACF9D1113C09091D601D8
:10154000C9120FC0E1100DC08683C8010E94530765
:1015500087E0F801A6EDB1E001900D928A95E1F7E0
:1015600067CFC8010E94AC07882309F464CFEE203E
:1015700009F461CF8091DC01803288F02091D6019E
:101580003091D701398728879B868A869091DA0126
:101590009C871D868E87CE0108960E94530787E0A0
:1015A000F801A6EDB1E001900D928A95E1F70E9455
:1015B0006E090E945D0942CF9091DC01292F207FA6
:1015C000A1F4682D9A8A898AA6017A899E2D0E94A3
:1015D000B90786ED91E00E94530787E0F50111926B
:1015E0008A95E9F70E945D0961CF882309F482CFCB
:1015F0008091D7018D1110C08091D601C8120CC006
:10160000E1100AC09683C8010E94530787E0F501E4
:1016100011928A95E9F76ECFC8010E94AC07882322
:1016200009F409CFEE2009F406CF8091DC01803265
:1016300008F4B5CF2091D6013091D7013A832983A0
:101640009C828B829091DA019D831E828F83CE01D2
:101650000196A3CF483C5105B8F5882309F4EECE96
:10166000FE2CEE2009F4E7CE8091D7018D111EC02B
:101670008091D601C8121AC08091DC0180FD0DC096
:10168000982F907F51F08683903F09F45ECF982F7A
:10169000907F905F8F70892B57CF87E0F801A6ED80
:1016A000B1E001900D928A95E1F724CFC8010E9424
:1016B000AC07811174CF8091DC0181608093DC01E3
:1016C000C8010E94530716CF682D9A8A898AA601FD
:1016D0007A899E2D0E94B90787E0F50111928A95BB
:1016E000E9F7A6CEAEE0B0E0E8E7FBE00C94061C1C
:1016F000288739874A875B876C877D878E87CE01ED
:1017000008960E94E8098823B1F06C85662341F0B1
:10171000288539854A855B857D858E850E94C3072E
:1017200017E080919C0190919D0189133DC02E96F8
:10173000E3E00C94221C87E0FE013896DE0111964E
:1017400001900D928A95E1F78C85882349F32091C9
:101750009D0130E0C90101968770992740919C0155
:101760004817190699F097E0929FD001939FB00D0A
:101770001124A256BE4FFE01319601900D929A950A
:10178000E1F780939D010E943B09CACF0E948C071C
:1017900010929D0110929C0187E0E6EDF1E0DF01DF
:1017A0001D928A95E9F7BCCF819FC0011124825612
:1017B0009E4F0E94E809882309F4B9CFE0919C016B
:1017C0001E9FF0011124E256FE4F2081318142819B
:1017D00053816481758186810E94C30780919C0139
:1017E00090E001968770992780939C019ACF682F8B
:1017F00080910001909101010E94CB170895682FFC
:1018000080910001909101010E94CE17089580916E
:101810000001909101010E94D11708958091DD018E
:1018200086958695869508958091DD018770089547
:101830009091DD01977081E009F480E00895809136
:10184000E90108959091E901892B8093E9010895B8
:1018500080959091E90198239093E9010895109261
:10186000E90108959091E801892B8093E80108959A
:1018700080959091E80198239093E8010895109243
:10188000E801089508950E94420C08959091DE01A8
:10189000292F282331F0809589238093DE010E942F
:1018A000430C089508950E94520C08959091DF0111
:1018B000292F2823281729F0982B9093DF010E94C5
:1018C000530C08959091DF01292F282331F0809542
:1018D00089238093DF010E94530C08958091DF01DA
:1018E000882329F01092DF0180E00E94530C0895B4
:1018F000E0910001F09101018091E9018083E09184
:101900000001F091010180819091E801892B808391
:101910009091DF01992381F0E0910001F0910101A4
:101920008081892B808380910001909101010E9428
:10193000831781110E946E0C80910001909101012A
:101940000E942017089508950E94A30C0895909175
:10195000A50292FF11C098E0899F90011124622B8B
:101960006093DD010E9415088091DD0186958695C2
:1019700086950E94A40C08950E941508089510925F
:10198000DD0180E00E94A40C08959091DD01809516
:1019900089238093DD01282F277069F4891759F076
:1019A0009091A50292FF07C08695869586950E9424
:1019B00025080E94BF0C08959091A50292FB222752
:1019C00020F9281769F080FB92F99093A502809185
:1019D000A4029091A5020E94240D82E00E94C50CF1
:1019E00008958091A50282FB882780F991E08927DC
:1019F0000E94DC0C089581E00E94DC0C089580E0D8
:101A00000E94DC0C08956FEF7FEF90E080E00E9471
:101A1000941C089590E080E00E94601C21E0863EC6
:101A20009E4F09F020E0822F089582E090E00E940E
:101A3000581C089583E090E00E94581C089584E0AB
:101A400090E00E94601C0895BC0184E090E00E9438
:101A5000941C0895AB01BC018FE090E00E94881CAB
:101A60000895AB01BC0183E190E00E94881C0895B9
:101A700060E070E0CB010E94310D089560E070E0FD
:101A8000CB010E942A0D0E94380D0895A8E0B0E015
:101A9000ECE4FDE00C94071C66EE7EEF90E080E045
:101AA0000E94941C60E082E090E00E94761C60E05E
:101AB00083E090E00E94761C10929B0110929A01A4
:101AC00060E074E184E090E00E94941C60E086E0B5
:101AD00090E00E94761C6FEF87E090E00E94761CF9
:101AE00040E050E0BA0188E090E00E94881C60E08D
:101AF00084E290E00E94761C60E087E190E00E9422
:101B0000761C60E08CE090E00E94761C60E08DE046
:101B100090E00E94761C19821A821B821C821D8210
:101B20001E821F82188648E050E068E170E0CE0116
:101B300001960E94661C40E050E0BA0180E290E00D
:101B40000E94881C0E943E0D2896E2E00C94231C03
:101B50000E94460D0895682F8EE090E00E94761C4A
:101B60000895A6E0B0E0E7EBFDE00C94051C0E94B0
:101B700085188C018091EA019091EB018017910703
:101B800081F019821A820E948518682F49815A8132
:101B9000792F80E090E00E9454041093EB010093B1
:101BA000EA012696E4E00C94211C0E9491186093AF
:101BB000F2017093F3018093F4019093F501609327
:101BC000EE017093EF018093F0019093F10108957D
:101BD000089508950E94E80D089508950E94ED0D5E
:101BE00008958FE990E10E9412120E94E90D0E946F
:101BF000EA0D089581E008950E94FA0D08950E946B
:101C0000FA0D0895089508950E94020E0E94030E91
:101C100008950E94BE100E94280408950E947C1816
:101C20000E947A110E94090E0E94EE0D0895A6E00E
:101C3000B0E0EDE1FEE00C94FE1B0E94FC0D811172
:101C40000AC00E94B10D0E94AD130E943B0426966B
:101C5000EBE00C941A1C0E948A111091EC0180E0B8
:101C60000E94E410181307C01091ED0181E00E945A
:101C7000E410181731F38091F60181FD0E94EA10FB
:101C80000E94FF0DC82E8CEEA82E81E0B82E10E029
:101C900099249394812F0E94E410082FF5018191DB
:101CA0005F01081729F1D02ED826F12CEE24E394F9
:101CB0008E2D8D21A9F0CC2099F0F9821A830E94F3
:101CC00085189C838B839D8291E08E2D802309F45F
:101CD00090E049815A816B817C818D810E945404FE
:101CE000F394EE0CF3E0FF12E3CFF501319700839C
:101CF000113019F40E94D50DA6CF11E0CBCF1F9360
:101D0000CF93DF930E94AE0FEC01C11580E5D80799
:101D1000F0F5C11580E4D80708F09CC0C03ED1059D
:101D200020F5CD3CD10508F082C0C83AD10578F441
:101D3000C53AD10508F073C0C130D10519F120971B
:101D400009F1C430D105F0F4D0E0C0E01BC0C33CC1
:101D5000D105D0F7C85AD0E0CC0FDD1FC35BDE4FF2
:101D60000990D881C02DD4640DC0C11580E2D80778
:101D700008F0D1C0C11581E0D80708F05AC0C83EAC
:101D8000D10510F7CE01DF91CF911F910895C03694
:101D900082E5D80718F5C03482E5D80708F06BC093
:101DA000C03282E5D80708F05FC0C11582E5D807C8
:101DB00008F497C02C2F2695269580E2289F900145
:101DC00011248C2F8370C1E0D0E002C0CC0FDD1F46
:101DD0008A95E2F7C22BD32BDD68D4CFC03A82E5D7
:101DE000D80760F4C03882E5D80708F459C0CF712D
:101DF000D0E0DC2FCC27C46FD06AC4CFC03C82E5D2
:101E0000D80708F462C0C03E82E5D80708F09CCF2E
:101E1000DC2FCC27CC27DF71C06FD06AB3CFC55A77
:101E2000D0E0CD57DE4FC881D0E0D064ABCFD065D5
:101E3000A9CF8D2F0E945010182FCE0199270E94F4
:101E4000AE0FC12FD0E0DC2FCC27CC27DF71C82B01
:101E5000D92B98CFCE0199270E94AE0FCC27DF70E7
:101E6000C82BD92BD06A8ECFCF71D0E0DC2FCC27F6
:101E7000C16FD06A87CF2C2F26952695277080E2D8
:101E8000289F900111248C2F8370C1E0D0E002C004
:101E9000CC0FDD1F8A95E2F7C22BD32BDC6872CF03
:101EA0002C2F26952695277080E2289F90011124DB
:101EB0008C2F8370C1E0D0E002C0CC0FDD1F8A956B
:101EC000E2F7C22BD32BDA685DCF8C2F8F710E9483
:101ED0005010C82FD0E0DC2FCC27CC27DF71D06288
:101EE00051CF8C2F8F710E94501055E0D695C79519
:101EF0005A95E1F7CF70D0E0DC2FCC27282F30E0C7
:101F000084FF05C044E0220F331F4A95E1F7C22B3E
:101F1000D32BD06937CF8D2F8F710E945010182F7F
:101F2000CE0199270E94AE0FC12FD0E0DC2FCC2725
:101F3000CC27DF71C82BD92BD2CF462F723030F48B
:101F4000633020F4672F0E943A03089590E080E008
:101F500008950E949D0F0E947F0E0895823891057A
:101F6000B9F1B0F48133910509F47DC048F48932A8
:101F7000910509F46DC08A32910509F47BC008957A
:101F80008533910509F45FC08933910509F10895FE
:101F9000833E9105D9F138F4803E910529F1823EC6
:101FA000910579F10895863E9105D9F1873E910515
:101FB00009F43EC0843E910541F52091A50221FF20
:101FC00024C08091A40284FD19C087EE90E008959A
:101FD0002091A402237009F05AC02091A50223FF8A
:101FE00014C089E290E008952091A40220FD38C039
:101FF0003091A50230FF09C024FF43C090E080E08B
:1020000008952091A40222FDF7CF08952091A40203
:1020100022FD3AC03091A50230FD39C024FFF5CF32
:10202000EDCF2091A40223FFF0CF24FDE7CFCDCF49
:102030002091A40223FD2EC03091A50231FFEECFE6
:1020400084EE90E008952091A40225FFDECFC9CF51
:102050002091A40225FD21C02091A50223FFD5CF08
:1020600089E390E0D2CF2091A40226FFCECF8AE26E
:1020700090E008952091A40226FFC7CF81E390E06D
:10208000089583EE90E0089582EE90E0089580EE4A
:1020900090E0089586EE90E0089585E390E008953D
:1020A0009091A40292FF10C041E0282F24712430A7
:1020B00009F040E031E0282F2871283009F030E0A5
:1020C000431711F02CE0822793FF10C041E0282F26
:1020D0002471243109F040E031E0282F28712831A3
:1020E00009F030E0431711F02CE082273091A5026F
:1020F00030FF10C051E0282F2171213009F050E04D
:1021000041E0282F2871283009F040E0541711F0E1
:1021100029E0822731FF10C041E0282F21712131B1
:1021200009F040E031E0282F2871283109F030E033
:10213000431711F029E0822794FD877E089580E0FF
:1021400008950E94030D08950E948A112FEF86E7DB
:1021500091E0215080409040E1F700C000000E94D3
:102160008A1180E00E94E41080FF04C00E94A11048
:102170000E94D01808950E94A41008950E940A0D8C
:10218000811102C00E94A80D0E94150D8093F601D6
:102190000E941F0D9093A5028093A4020E94BB1081
:1021A0000E941A0D90E00E94D907809198019091A9
:1021B00099010E94FA07089508950E94DC1008957D
:1021C00008950E94E0100895E82FF0E0E855FD4FD3
:1021D00080810895089580EA8A95F1F7089500C0F6
:1021E00008950E94EB100895F894E82FE295EF709F
:1021F000F0E031A1282F2F7081E090E001C0880F1E
:102200002A95EAF7982F9095932391A392A1892B71
:1022100082A37894089581E30E94F41080E30E94E1
:10222000F41080E60E94F41081E60E94F41082E629
:102230000E94F4100895B0E0A0E0E1E2F1E10C9416
:10224000011CEC01D62E062F10E0C80187579E4FC7
:102250007C01FC0180818F3F09F445C0F894E82F90
:10226000E295EF70F0E091A18F7021E030E001C0C5
:10227000220F8A95EAF7892F822B81A382A12095CC
:10228000282322A378940E94EF10E6E8F1E049E8C1
:1022900051E031E0C12C21912F3F51F1A22FA295A5
:1022A000AF70B0E090968C9190E02F7002C0959541
:1022B00087952A95E2F780FD1BC0832FC82A330F2C
:1022C0004E175F0741F7F70180818F3F11F00E94A1
:1022D000F41061E0C11001C060E08D2D0E94F1108A
:1022E000C00FD11FC882CDB7DEB7E8E00C941D1C2B
:1022F00080E0E4CF0E940B111092A9021092A80274
:102300001092A7021092A60282E00E94C0110E94C1
:10231000DD100895A2E0B0E0E0E9F1E10C94061CC4
:102320001A82198260E0CE0101960E941B1161E0C1
:10233000CE0101960E941B1142E050E0BE016F5F8A
:102340007F4F86EA92E00E94421C21E0009709F448
:1023500020E0892B31F089819A819093A7028093A4
:10236000A60242E068EA72E086EA92E00E94C111A9
:10237000182F0E94E110812F2296E3E00C94221C7A
:102380000895CF92DF92EF92FF920F931F93CF9316
:102390006C017B01042F222349F081E08093F90135
:1023A0000E9485189093F8018093F701C091F9017C
:1023B000C1110AC0C0E08C2FCF911F910F91FF90E7
:1023C000EF90DF90CF9008958091F7019091F80100
:1023D0000E949D18059770F310E0A801B601C7018F
:1023E0000E94421C892B41F0A801B601C7010E943E
:1023F0004F1C1092F901DFCFC0E0FBCF0E94001903
:102400000E940E0E0E94111908950E9424180E9425
:10241000F0180E94F10D0E94FE110E941F190E94E7
:10242000040EFBCF90938D0180938C010895282F8B
:1024300035EB2303C001112497FF04C08058910994
:10244000892F089580589F4FFBCF8091000280FF15
:102450000DC06091070170E0660F771F603871054D
:1024600070F56115710569F1862F089581FF07C028
:102470006091070184E0689FB0011124EFCF609163
:10248000070182FD0AC08091FF018823A9F02091F5
:10249000060160910701821710F088E0ECCF869F5B
:1024A000C001112433E0880F991F3A95E1F7622F9C
:1024B00070E00E94DD1BD2CF68E070E0D5CF8FE7DF
:1024C000089581E008958091000280FF0CC0609122
:1024D000030170E0759567957595679561157105B0
:1024E00049F1862F089581FF06C06091030170E0D5
:1024F00075956795F3CF6091030182FD0BC09091B4
:10250000FE019923A1F060910201809103019617C9
:1025100038F0682F70E06038710500F38FE7089598
:10252000899FC001112470E00E94DD1BF4CF61E09F
:1025300070E0D7CF81E008958D3C31F40E942512E0
:1025400081958093040208958E3C19F40E9425120F
:10255000F8CF8F3C31F40E942512819580930302BD
:102560000895803D19F40E942512F8CF893D29F481
:102570000E9463128093050208958A3D21F40E940F
:1025800063128195F7CF8B3D31F40E9463128195E0
:102590008093060208958C3D19F40E946312F8CFCF
:1025A0009FE2980F983070F4815D990B21E030E044
:1025B00001C0220F8A95EAF780910202822B809354
:1025C000020208958D3D31F4809100028160809374
:1025D000000208958E3D21F4809100028260F7CFC1
:1025E0008F3DB9F7809100028460F1CF40910302E2
:1025F0008D3C59F48091040287FF0DC010920402B3
:1026000041110BC01092FF0108C08E3C81F48091F3
:10261000040218169CF3442381F0809105029091E6
:102620000602892B09F05AC01092FE0108958F3CD2
:1026300049F447FFF0CF1092030280910402811108
:10264000ECCFE0CF803D19F41416ACF3E4CF9091B9
:102650000502893D29F41916F4F610920502DBCF24
:102660008A3D19F497FFD7CFF8CF909106028B3DA2
:1026700029F497FFD0CF10920602CDCF8C3D19F4EC
:102680001916CCF3C8CF9FE2980F983090F4815D73
:10269000990B21E030E0B90102C0660F771F8A95DF
:1026A000E2F7CB0180959091020289238093020288
:1026B000B2CF8D3D31F4809100028E7F8093000275
:1026C000AACF8E3D21F4809100028D7FF7CF8F3D00
:1026D00009F0A1CF809100028B7FF0CF08950E9476
:1026E00085189C019091030280910402982B21F09F
:1026F0003093FD012093FC01909105028091060228
:10270000982B21F03093FB012093FA0181E092E0B5
:102710000E942B17089586E0E1E0F2E0DF011D92B0
:102720008A95E9F71092FF011092FE0110920002C3
:102730000895FC01828181110EC0838181110BC03B
:102740008481811108C091E08581811101C090E0F0
:10275000892F8170089581E0FCCFA6E0B0E0E3EB23
:10276000F3E10C94061C86E0E1E0F2E0DE01119654
:1027700001900D928A95E1F71092030210920402E3
:1027800010920502109206028B819C81892B89F0A0
:102790008091FC019091FD010E949D18AC019091E7
:1027A000FF019923C9F1809108018417150608F4E7
:1027B00040C08D819E81892B91F08091FA0190918A
:1027C000FB010E949D18AC019091FE01992309F430
:1027D0006AC0809104018417150608F472C0BE0116
:1027E0006F5F7F4F81E092E00E94D817811105C092
:1027F00081E092E00E94991381110E946F1386E09C
:10280000FE013196A1E0B2E001900D928A95E1F7C8
:102810002696E3E00C94221C209109018AE0289F6F
:10282000900111242417350720F69F5F9093FF0134
:1028300002C09F3FD1F71B81112359F00E9425123E
:102840009FEF11160CF491E0899F802D1124809345
:1028500003021C81112359F00E9425129FEF1116CB
:102860000CF491E0899F802D1124809304028091C3
:102870000302882309F49DCF10910402112309F467
:1028800098CF0E941712882351F080930302812F62
:102890000E941712882329F0809304028ACF81E0D6
:1028A000F4CF81E0F9CF209105018AE0289F9001C3
:1028B00011242417350708F092CF9F5F9093FE01F3
:1028C00002C09F3FD1F71D81112359F00E9463126E
:1028D0009FEF11160CF491E0899F802D11248093B5
:1028E00005021E81112359F00E9463129FEF1116F9
:1028F0000CF491E0899F802D112480930602809131
:102900000502882309F46BCF10910602112309F404
:1029100066CF0E941712882351F080930502812F01
:102920000E941712882329F08093060258CF81E075
:10293000F4CF81E0F9CFCF93DF93EC01FB018581E8
:10294000882309F4D2C09E0130572332310508F0A4
:10295000B2C00E941F0D9093A5028093A402FE01B5
:10296000E150F047E232F10520F4E854F34E0C94C4
:10297000F11B8091A40281608093A40293C0809196
:10298000A50288608093A5028DC08091A402826018
:10299000F3CF8091A4028460EFCF8091A40288607D
:1029A000EBCF8091A5028160EDCF8091A50282607E
:1029B000E9CF8091A4028061DFCF8091A402806280
:1029C000DBCF8091A4028064D7CF0E948C078091D6
:1029D000A4028068D1CF8091A4028C60CDCF809179
:1029E000A5028360CFCF8091A4028E7FC5CF809156
:1029F000A502877FC7CF8091A4028D7FBDCF809134
:102A0000A4028B7FB9CF8091A402877FB5CF80913C
:102A1000A5028E7FB7CF8091A5028D7FB3CF809125
:102A2000A4028F7EA9CF8091A4028F7DA5CF809133
:102A3000A4028F7BA1CF0E948C078091A4028F7784
:102A40009BCF8091A402837F97CF8091A5028C7F3A
:102A500099CF8091A40282FB992790F921E09227D7
:102A600090FB82F990FB83F987CF8091A502982F84
:102A7000909591708E7F892B90FB81F983CF9091F7
:102A8000A402892F8F7B96FF806476CF0E948C07EB
:102A90009091A402892F97FB87F980586DCF81E030
:102AA0000E94AB0D8091A4029091A5020E94240D7A
:102AB0000E948C0780E0DF91CF91089580E0F0CFF5
:102AC0009091A402892F8F7E94FF806155CF9091C1
:102AD000A402892F8E7F90FF81604ECF9091A50236
:102AE000892F877F93FF88604DCF81E0E4CFB0E0EE
:102AF000A0E0EDE7F5E10C94021CE82FF0E0EA5EBF
:102B0000FE4FD490282F26952695269530E0F90182
:102B1000EA54FE4F0491877010E0082E02C015950C
:102B200007950A94E2F701701127F901EA55FE4F63
:102B3000E490F12C082E02C0F594E7940A94E2F791
:102B400091E0E922FF24F901EA56FE4FC491D0E05A
:102B500002C0D595C7958A95E2F7C170DD270115AA
:102B6000110519F081EE0E949704E114F10419F0A7
:102B700086EE0E9497048D2D0E942F05E114F1042A
:102B800019F086EE0E94E4040115110519F081EE9A
:102B90000E94E404CD2B19F08CE20E942F05CDB7E2
:102BA000DEB7E7E00C941E1CEF92FF920F931F9389
:102BB000CF93DF938C01F62E8AE0E82EF801849102
:102BC000882309F454C0813009F04DC0E8012196F2
:102BD000FE018491813091F42196FE0184910E943E
:102BE0002F058E010F5F1F4F8F2D815038F3EFE9B6
:102BF000FFE03197F1F700C00000F7CF823039F4E1
:102C0000E8012296FE0184910E949704EACF833066
:102C100039F4E8012296FE0184910E94E404E1CF98
:102C20008430F9F6E8012296FE01249190E080E0DC
:102C3000FE0131962053330B2A30310548F00197BD
:102C400080F2EFE9FFE03197F1F700C00000F7CF25
:102C5000E89EA001E99E500D1124C901840F951F23
:102C60002491EF01E5CF0E947715E801BACFCDB7E7
:102C7000DEB7E6E00C941F1CCF93DF93EB018631A7
:102C80009C4711F50E941F0C9D81992399F08A7A27
:102C900091E009F490E090930702811109C089E264
:102CA0000E94F70B0E94780C80E0DF91CF9108958D
:102CB00085E3F6CF80910702811104C089E20E946A
:102CC000FF0BF0CF85E3FBCF81E0EFCF0F931F9396
:102CD000CF93DF93C42FD22FFC0185818823C9F0C5
:102CE00040930A020E94851890930902809308027B
:102CF00080E28C0F883040F4C77081E001C0880FFB
:102D0000CA95EAF70E943805DF91CF911F910F9184
:102D1000089510910A02141332C080910802909114
:102D200009020E949D18883C910548F5C0E2CD0F2C
:102D30001D17B9F080E2810F883040F4177081E0F0
:102D400001C0880F1A95EAF70E943F05C83048F481
:102D500081E09D2F977001C0880F9A95EAF70E9435
:102D60003805802F0E942F05C83070F6D77081E09B
:102D700001C0880FDA95EAF70E943F05C5CF80E2CF
:102D80008C0F883008F6C77081E001C0880FCA95A3
:102D9000EAF7F2CF0F93DB0188519C47873091050A
:102DA000A0F5FC01E652F34E0C94F11B06E221EE75
:102DB00041EE6AE17CE7CD010E94661680E00F914A
:102DC000089507E225EE45EE6BE17CE7F4CF06E2DD
:102DD00021EE40EE68E17CE7EECF07E225EE44EE1F
:102DE00069E17CE7E8CF06E221EE42EE6CE17CE7A8
:102DF000E2CF07E225EE46EE6DE17CE7DCCF08E2AC
:102E000021E045EE6EE17CE7D6CF15968C918823C4
:102E100019F010920A02D3CF81E0D1CF9093100223
:102E200080930F020895E0910F02F0911002309705
:102E300029F00190F081E02D0995089580E0089532
:102E4000E0910F02F0911002309721F00280F3819F
:102E5000E02D09950895E0910F02F091100230974E
:102E600039F022E0DC012C930480F581E02D0995F6
:102E70000895A3E0B0E0EFE3F7E10C94071C209184
:102E80000D0230910E0228173907A1F090930E021F
:102E900080930D02E0910F02F0911002309751F0F3
:102EA00023E029839B838A830680F781E02DCE016E
:102EB000019609952396E2E00C94231CA3E0B0E070
:102EC000E4E6F7E10C94071C20910B0230910C0210
:102ED00028173907A1F090930C0280930B02E09120
:102EE0000F02F0911002309751F024E029839B8368
:102EF0008A830680F781E02DCE01019609952396FD
:102F0000E2E00C94231C9C012E5F3F4FAC01485F14
:102F10005F4F80E02417350709F40895F901919176
:102F20009F019923B9F38F5FF5CF662349F0FC0128
:102F3000329608962191261729F0E817F907D1F75C
:102F400080E0089581E008959C01FC0132969FEF96
:102F500080E04191461751F09F3F19F4411101C0A3
:102F6000982F8F5F8630A9F79F3F09F40895290FA6
:102F7000311D97FD3A95F90162830895FC0132965F
:102F800008962191261303C0DF0111971C92E817C0
:102F9000F907B9F708950E94A41708950E94BE1773
:102FA0000895029626E0FC0111922A95E9F708950A
:102FB000DC01FB0111969C9111978181981322C02D
:102FC00012968C911297882319F0928189131AC056
:102FD00013968C911397882319F09381891312C04B
:102FE00015968C911597882319F0958189130AC03D
:102FF00014969C91992321F081E02481291303C028
:1030000080E001C081E081700895089508950E94D4
:1030100006180895089508950E94051808950E94BD
:103020000A180E948A110E940B1880E00E94E41086
:1030300091E0811107C081E00E94E41091E08111CC
:1030400001C090E0892F089508951F921FB61F9226
:1030500011248F939F93AF93BF938091110281119D
:1030600013C08091AA029091AB02A091AC02B091E2
:10307000AD024196A11DB11D8093AA029093AB02AF
:10308000A093AC02B093AD02BF91AF919F918F918D
:103090001F901FBE1F90189580911402882331F154
:1030A0000E940B041092110288E190E020E40FB618
:1030B000F894A895809360000FBE2093600083B7BA
:1030C000817F846083BF83B7816083BF7894889554
:1030D00083B78E7F83BF0FB6F894A8958091600068
:1030E000886180936000109260000FBE08950E9476
:1030F0008C070E941004089582E084BD93E095BD82
:103100009AEF97BD80936E0008952FB7F894809141
:10311000AA029091AB02A091AC02B091AD022FBF78
:1031200008952FB7F8946091AA027091AB02809134
:10313000AC029091AD022FBF08959C014FB7F89457
:103140008091AA029091AB02A091AC02B091AD0225
:103150004FBF821B930B089578941F921FB61F9246
:1031600011248F939F93AF93BF938091AA02909164
:10317000AB02A091AC02B091AD020196A11DB11DB0
:103180008093AA029093AB02A093AC02B093AD02DD
:10319000BF91AF919F918F911F901FBE1F90189567
:1031A00088E198E00FB6F894A895809360000FBE70
:1031B00090936000A895F894D8E0CEEF28E3299387
:1031C00020E0299314BEFFCF089588E198E00FB660
:1031D000F894A895809360000FBE90936000FFCF95
:1031E0000E948518909313028093120280E890E069
:1031F0000FB6F89480936100909361000FBE08951C
:103200000E94C21B539A80E0815019F4539878941D
:103210000895A895EFE9FFE03197F1F700C00000AD
:10322000F3CF0E94E4190E940E172FEF80E792E07F
:10323000215080409040E1F700C000000895809147
:10324000D502882311F11092D5020E94851890931F
:1032500013028093120280911402882341F010928D
:1032600014020E94771880911402811112C00E94EA
:10327000D21A8091DB02882329F08091B90284FD63
:103280000E94170E0E948B190895809114028823C2
:1032900001F10E944C180E940F188823A9F3F8949A
:1032A0002AB15B9A822F8C608AB99BB13CE093274C
:1032B0009BB94FE788E391E0415080409040E1F7AF
:1032C00000C000008BB183278BB92AB95B98789432
:1032D000089580911202909113020E949D18069702
:1032E00008F4C1CF81E0809314020E944C18BBCF38
:1032F0008091A30208952091F20224FF03C063E0AD
:103300000E94CD1A08952091F20224FF03C066E0C6
:103310000E94CD1A0895CF93DF93CAE0D0E0809148
:10332000B90284FF1AC0809120029091210298175F
:1033300089F028E0829FC001112468E08E5D9D4FD6
:103340000E94C81A8091200290E001968F70992700
:1033500080932002DF91CF9108950E94D21A8FE9C5
:103360009FE00197F1F700C000002197C1F6F2CF6E
:10337000CF93DF93EC01A0912102B0E0CD01019643
:103380008F70992720912002281779F093E0AA0FD7
:10339000BB1F9A95E1F7AE5DBD4F98E0FE0101902D
:1033A0000D929A95E1F7809321020E94D21A0E9411
:1033B0008B1988E0FE01A8E1B2E001900D928A9598
:1033C000E1F7DF91CF9108958AE091E00895FC0143
:1033D000808180768032F1F48181813061F4848152
:1033E0009581892BB9F488E192E09093D70280937C
:1033F000D60288E00895823041F482EA92E0909308
:10340000D7028093D60281E008958A3029F483811F
:103410008093A20280E008958930E1F78281938150
:103420008115924069F484819581892B49F481E06A
:1034300080931702868197819093160280931502DC
:103440008FEF0895FC018091150290911602892B4F
:1034500061F080911702813041F490819093A30232
:10346000109216021092150208958FEF0895089594
:10347000FC019381933059F130F49130C1F09230D6
:10348000F1F080E00895913209F440C09232C9F71A
:1034900084819581009709F44AC0019791F789E4E6
:1034A00092E09093D7028093D6028BE7089581E053
:1034B00092E09093D7028093D60282E1089586EC41
:1034C00091E09093D7028093D6028BE30895828196
:1034D0008130A1F0882351F0823099F683E192E0A7
:1034E0009093D7028093D6028AE1089585E492E012
:1034F0009093D7028093D60284E008958FE292E001
:103500009093D7028093D60284E108958281882324
:1035100031F0813009F0B5CF81EF91E002C088ED44
:1035200091E09093D7028093D60289E0089584ECCD
:1035300092E09093D7028093D60284E408951F937B
:10354000CF93DF93E82F792F162FEA01888184FF2C
:103550001CC0298188E828272983CE010296DC0136
:103560002E2F372F512F5E0FF90121912D939F019F
:10357000452F4E1B1416C4F3612F0E94B8011C5F27
:103580001883DF91CF911F9108958AE58883E5CF55
:1035900049EB52E00E949F1A089542EF52E00E94C8
:1035A0009F1A0895CF93DF936091D802635067FD0F
:1035B00012C08091D402CCE0D0E0C81BD109C45223
:1035C000DD4F8091D302803108F054C0CE010E94BB
:1035D000371A1092D8028091130184FF3EC0809167
:1035E00012018F3FD1F1C82F893008F0C8E0982F21
:1035F0009C1B909312019091AE0228E89227909321
:10360000AE028823E9F08091D6029091D7022091F2
:10361000D20226FFAEC0FC012C2FAFEAB2E03491FB
:103620003D9331962150D9F79C012F5F3F4F8FEF8B
:103630008C0F820F932F911D9093D7028093D60207
:103640006C2F8FEA92E00E94B801CC5FCC3019F069
:103650008FEF80931201C093130184E199B19C70A4
:1036600031F48150D9F71092D9021092D102DF9132
:10367000CF9108958D3209F069C0683009F0A9CF63
:1036800083EC8093AE028AE5809313011092D202FC
:103690008881807671F0CE010E94E7198F3FC1F4D6
:1036A000988197FD8E8190E89093D20280931201C9
:1036B00090CF2A811092B7029981911111C0109276
:1036C000B80227EB32E082E03093D7022093D60293
:1036D0009F819111EBCF9E81981740F7892FE6CFFC
:1036E000953029F42093D90227EB32E0EDCF9630C4
:1036F00099F49B81913021F4CE010E94381A08C0C0
:103700009230D1F39330C1F39132B1F39232A1F3FD
:1037100090E49093D202C2CF983089F0993019F496
:103720002093DB02E1CF9A3071F09B30E9F69BE405
:103730009093BA029093F3029093C602D5CF2BEDEB
:1037400032E081E0C1CF27EB32E0FBCF8091D202A3
:1037500087FF3FCFCE010E94221A8F3F21F48EE1D6
:103760008093130136CF882309F433CF10921201CE
:1037700030CFDC012C2FEFEAF2E03D913193215064
:10378000E1F752CFCF93DF93E9E6F0E080818860E4
:103790008083E99AC9EBD2E08BE48983A2EFB2E09F
:1037A00011968C931197E5ECF2E081838AE588838A
:1037B0008C938083DF91CF91089597FB072E16F4A9
:1037C000009407D077FD09D00E942E1C07FC05D07D
:1037D0003EF4909581959F4F0895709561957F4F28
:1037E0000895EE0FFF1F0590F491E02D09942F929C
:1037F0003F924F925F926F927F928F929F92AF9281
:10380000BF92CF92DF92EF92FF920F931F93CF93CD
:10381000DF93CDB7DEB7CA1BDB0B0FB6F894DEBF64
:103820000FBECDBF09942A88398848885F846E848A
:103830007D848C849B84AA84B984C884DF80EE80D4
:10384000FD800C811B81AA81B981CE0FD11D0FB6DD
:10385000F894DEBF0FBECDBFED010895AA1BBB1BC0
:1038600051E107C0AA1FBB1FA617B70710F0A61B80
:10387000B70B881F991F5A95A9F780959095BC01A1
:10388000CD010895FB01DC0104C08D9101908019E8
:1038900021F441505040C8F7881B990B0895FB0153
:1038A000DC0102C001900D9241505040D8F70895BC
:1038B000F999FECF92BD81BDF89A992780B50895F8
:1038C000A8E1B0E042E050E00C949C1CDC01A40FA5
:1038D000B51F4150504048F0CB01840F951F2E91E9
:1038E0000E94771C41505040D0F70895262FF99937
:1038F000FECF92BD81BDF89A019700B4021639F04F
:103900001FBA20BD0FB6F894FA9AF99A0FBE08951F
:103910000396272F0E94771C0E94761C252F0E9459
:10392000771C242F0C94771C0196272F0E94771C5C
:103930000C94761CDC01CB01FC01F999FECF06C08A
:10394000F2BDE1BDF89A319600B40D92415050405D
:10395000B8F70895F894FFCF85058505D505D505F9
:103960003A065606B405B4055B06CC06DB06DB0654
:10397000F3146715FB14C514C914FF14CD140315F3
:103980000F15D9146015DD141315E11417153F1523
:10399000E5141B154615EB1421152915D11407152F
:1039A000D5140B15EF14251535154F155E15BF14DD
:1039B000F7146E15E716ED16D616E116F316F9167E
:0239C000FF16F0
:1039C200E001280850011E0A14017819B819831958
:1039D2007B19FF5AE200E900EA00B500B600B70021
:1039E200CD008301CC008A019201940121022302BD
:1039F20024022502260227022A02B300B4006F0025
:103A020070009F01CB019F02A002818283E200E944
:103A120000EA00B500B600B700CD008301CC008AF1
:103A22000192019401210223022402250226022787
:103A3200022A02B300B4006F0070009F01CB019F05
:0C3A420002A002818283606162313000CA
:00000001FF
