:100000000C940A030C9427030C9442030C942703CA
:100010000C9427030C9427030C94D7190C942703F2
:100020000C9427030C9427030C9427030C942703A8
:100030000C9427030C9427030C945E1A0C9427034A
:100040000C9427030C9427030C9427030C94270388
:100050000C9427030C9427030C9427030C94270378
:100060000C9427030C942703516E6862696A206719
:10007000667220616F7A20767A6763676D75676C48
:1000800020786A20656B7A7361713B2061727420FD
:10009000767663206B79667262717A20786620705A
:1000A0006376612E20466B6D67206A707379206ECF
:1000B0006420666C767676207A7676662069746E31
:1000C0006A20616768622075636C206A6D6D767462
:1000D00072662F7361737167632F6368772E207662
:1000E0006A6720746769727973207162206E756225
:1000F000206B737168206E62742071656F692F6365
:1001000075716E67697576206A7220796273206DE9
:1001100064706D767020646B72766E207072696F99
:100120006A6D66676D2E004E7772206A64766A7A11
:1001300020666267633074206564706A207079207D
:100140006274796820767820576F666667204D67FD
:100150006F696D7269787920716569726D656D205E
:100160007761206675747674204B79776879686951
:100170006D677076204C7A6265696A69206A7220C0
:1001800059646C636120676C64766B6B736167683C
:1001900020756E206F6163626E7320696A69697889
:1001A00070206C6368652E204A7571692079712012
:1001B00074696C207172696D772C2077756371207A
:1001C0006772616B66772C20666F77657465206B4C
:1001D000767176792C206F6171206D676777692061
:1001E0007920746F6820776E676669692069766E1A
:1001F000796C6B766269206D66206E716421205087
:100200006C7A6762207A767220656F7A6B6A722EDA
:100210006E6F6C6E6E206A6977777A7A732073627C
:10022000722073776D692067627A692E0A005073B5
:10023000696B6967686879617A716A72712063684D
:10024000206D64797A647278207A767220656F7A8C
:100250006B30692067666F666674616B7A21205225
:1002600066632074626520746E6D206B76676E79AC
:100270002E0A00353336353631373236333638329A
:100280003037343638363532303632363136343629
:100290003736353230363636463732323036333608
:1002A0004337353635373300756E697661742067AC
:1002B0006562686F79722066627969766174206719
:1002C0007572207076637572653F006867756F6838
:1002D0007420657261776D7269662065687420703C
:1002E00061777320756F792065726F66656220741F
:1002F000737269662072656870696320656874202E
:1003000065766C6F7320656279616D203F656C6204
:10031000697461706D6F63204B4D51207369206566
:1003200067646162207369687420776F6E6B2075F3
:100330006F792064696400303131303131313030CF
:1003400031313031313131303131313031303030A3
:100350003031303030303030313130313030303099
:100360003131303031303130313131303031303085
:100370003131303031303130303130303030303078
:100380003131303031303130313130313030313065
:100390003131313031303030313130313030303056
:1003A0003131303031303130313131303031303045
:1003B00030313031313130004F6F6F6F6F6F6F6F91
:1003C0006F2C20676F6F642067756573732E2073C1
:1003D0006F20636C6F73652E001500120017000606
:1003E00000815211001300190082521B00270010D7
:1003F0000018000C000D000A000800835284520B04
:10040000000F001C00070005001D008552090004B4
:10041000000E00110001770277037700770577045B
:100420007700000000000000002A2B2800000000D8
:100430000000000000000000000000002900000093
:10044000002C1E3420212224342627252E362D3739
:1004500038271E1F202122232425263333362E370A
:10046000381F0405060708090A0B0C0D0E0F1011A2
:1004700012131415161718191A1B1C1D2F313023AF
:100480002D350405060708090A0B0C0D0E0F101177
:1004900012131415161718191A1B1C1D2F3130357D
:1004A0004C00000000000000000000000000000000
:1004B000000000000000000000000000000000003C
:1004C00000000000007E0F00D4FFFFFFC700000007
:1004D0007809023B00020100A0FA090400000103B0
:1004E00001010009210101000122440007058103E7
:1004F00008000109040100010300000009210101B5
:100500000001227B0007058303080001120110018E
:1005100000000008EDFEEFBE0001010200011A0319
:1005200072006F007400630030006E0020006200F3
:1005300061006400670065000000140372006F0032
:100540007400310033006C00610062007300000031
:100550000403090405010902A10185020901A100A2
:100560000509190129081500250195087501810261
:100570000501093009311581257F9502750881062D
:1005800009381581257F950175088106050C0A3803
:10059000021581257F950175088106C0C0050109F6
:1005A00080A101850319012AB700150126B700951E
:1005B0000175108100C0050C0901A1018504190114
:1005C0002AA002150126A002950175108100C00520
:1005D000010906A101050719E029E7150025019584
:1005E0000875018102950175088103050719002925
:1005F000FF150026FF009506750881000508190102
:1006000029051500250195057501910295017503D0
:100610009103C00011241FBECFEFD8E0DEBFCDBFD5
:1006200011E0A0E0B1E0E6E2FDE302C005900D922A
:10063000AC38B107D9F722E0ACE8B1E001C01D92B7
:10064000AE3FB207E1F70E94B7130C945C1E0C9406
:100650000000A82FB92F80E090E041E050EA6095BB
:1006600030E009C02D9182279795879510F0842757
:100670009527305EC8F36F5FA8F30895EADF8D9386
:100680009D930895CF93CFB7CF93DF93C3954B9BA3
:10069000E9F74B9B10C04B9B0EC04B9B0CC04B9B78
:1006A0000AC04B9B08C04B9B06C0C091D502C395A6
:1006B000C093D5028EC06F93C091D402DD27C4527F
:1006C000DD4F2F9365E54B9B03C02F916F91E1CFD9
:1006D0000F931F934F9320E040E15F9309B10C709B
:1006E00003FB27F93F9350E03BE039C01C704064A6
:1006F0002F77012F5F5F1EC0406819B11C702F77E4
:1007000052501FC0406409B12F770C70D1F15F5F68
:1007100000C023C0406219B12F771C7091F15F5F58
:1007200000C025C00C701027515012F45D5F00000E
:10073000115027952C3F19B1C8F61C7001270150A4
:1007400027952C3FC8F64227499309B10C70102712
:100750004F73115027952C3FA8F64695469519B131
:100760001C7079F00127015027952C3F98F66B5AA1
:1007700060F3315009B1B0F600C012E01CBB002795
:100780001CC03B503195C31BD04012E01CBB0881FC
:10079000033C21F10B3411F12091D1021981110F89
:1007A0001213EDCF4A81441F093679F10D3211F051
:1007B000013E29F74F7009F0042F0093DA023F91B0
:1007C0005F914F911F910F912F916F91CCB3C1FD0C
:1007D0005DCFDF91CF91CFBFCF9118952091DA02F5
:1007E000222369F31091D802112309F049C0343053
:1007F0000AF448C03093D8022093D3021091D40257
:100800003BE0311B3093D4023DC00091D80201304F
:10081000BCF50AE54F7049F43091130134FD33C043
:1008200000931301CEEAD2E032C0433059F0443095
:1008300091F03091B90234FD26C00093B902CAEBA1
:10084000D2E025C03091F20234FD1DC00093F202C7
:10085000C3EFD2E01CC03091C50234FD14C0009338
:10086000C502C6ECD2E013C0052710E000C00000AE
:100870000BB91AC0052710E0221F1DC010E021C0CF
:100880004AE502C032ED432FC4E1D0E032E01AB1B4
:100890001C605B9A0BB11AB95CE020E865E320FFAD
:1008A00005270BB9279517951C3FF0F66695B8F705
:1008B000B1F720FF05270BB9279517951C3FD0F6F8
:1008C0002795179517FF052700001C3F0BB9B0F6B9
:1008D00029913A9519F7037F1091D902110FC6514A
:1008E000D0400BB911F01093D10212E01CBB08608C
:1008F0001AB1137F402F437F54E05A95F1F70BB99B
:100900001AB94BB95CCFFB01823027E7920799F106
:1009100048F4811527E79207F1F08130974721F1DC
:1009200081E00895843027E7920799F158F18530E6
:100930009747B1F78581882399F360E08EE292E0D2
:100940000E94861760E087E291E00E94861760E0CF
:1009500088E690E006C08581882311F360E088EB8B
:1009600093E00E948617DCCF85818823C9F260E07E
:1009700087E393E0F6CF8581882391F260E08BECEA
:1009800092E0EFCF8581882359F260E088EA92E017
:10099000E8CF8581882321F260E083E792E0E1CF10
:1009A0008630B8F46230A8F4433098F450E093E015
:1009B000699F400D511D1124FA0196E0899FE00DB9
:1009C000F11D1124EE0FFF1FE752FC4F859194910A
:1009D000089581E090E008950E94D004089581E098
:1009E00008950E94EF04089581E008950E94830411
:1009F000089508950E94F9040895A6E0B0E0E3E0A8
:100A0000F5E00C94B81D49835A839E83309193017D
:100A100089819A8131111AC03E81332399F02223B2
:100A200089F00E948D0A182F682F89819A810E946F
:100A3000690A69817A81812F0E944F112696E3E02D
:100A40000C94D41D0E947B0A182FF3CF0E948D0AAC
:100A500069817A81F1CFFC01262F40815181628129
:100A60007381848195810E94FD040895CF93DF9363
:100A7000EC0161E00E942B05BE010E94F104DF91B0
:100A8000CF910895CF93DF93EC0160E00E942B0596
:100A9000BE010E94FA04DF91CF91089508950E944B
:100AA0003E090E944E052FEF84E39CE021508040D8
:100AB0009040E1F700C0000008950E944F050E9499
:100AC000821A08950E944F050E94971A08950F9365
:100AD0001F93CF93DF938C0161E00E942B05EC0103
:100AE000B8010E94F604811106C080E0DF91CF9129
:100AF0001F910F910895B801CE010E947C188823A0
:100B0000A1F3B801CE010E944D16882371F3B801FC
:100B1000CE010E94EE17882341F3F80185818823D6
:100B200061F0C330FCE7DF07E9F058F4C115ECE7EA
:100B3000DE07A9F0C130DC47B9F0C8010E94F40417
:100B4000D5CFCB358CE7D807A9F0CC35ECE7DE075D
:100B500071F0CA35DC4789F70E94AD0EEECF0E94D6
:100B60005D05C3CF0E94B50E0E946205BECF0E94F4
:100B7000A30EE3CF0E94B10EE0CF0E94B9190E94EC
:100B8000E40508950E94E8050E94BE19089508959D
:100B900081E008950895CF93DF93D82F0E94C80570
:100BA000C82F882319F08D2F0E94CA058C2FDF9142
:100BB000CF9108950895CF93C82F0E94C7058C2F19
:100BC0000E94CB05CF91089580E00E94DB05089537
:100BD0000E94C5180E94DB050895CF930E94C51896
:100BE000C82F80918E018C1779F0C0938E010E94DE
:100BF000431A60938F0170939001809391019093B9
:100C000092018C2F0E94DB05CF910895ADE0B0E0FA
:100C1000ECE0F6E00C94B91D488759876A877B871A
:100C20008C879D8791110E94F10D1F8286E0FE0145
:100C30003896DE01119601900D928A95E1F78D812B
:100C400081110DC029813A814B815C816D817E814A
:100C50008F810E94240D2D96E2E00C94D51DCE01CB
:100C600001960E9436058111EDCFF5CFFC0124815C
:100C7000213021F4808191810E94BF0A089566236A
:100C800029F00E944E140E94211508950E94A81474
:100C9000FACFCF93C82F8823B9F08CEF8C0F813A0D
:100CA000A8F46C2F80910001909101010E944719D6
:100CB000882329F08C2F0E94B10D0E942A0E8C2FC0
:100CC0000E94A90D0E942A0ECF91089580E28C0FF8
:100CD000883048F4C77081E001C0880FCA95EAF7F0
:100CE0000E94D40DEFCFEBE5EC0FE33040F4F0E0E1
:100CF000E65BFE4F808190E00E94EB18E5CFE8E5CF
:100D0000EC0FEB3150F4F0E0EE0FFF1FEC5EFE4F06
:100D1000808191810E941019D7CF83E38C0F83319A
:100D200098F661E08C2F0E943F06CECF882381F198
:100D30009CEF980F913A28F40E94B10D0E942A0E60
:100D4000089590E2980F983050F4877091E001C0B8
:100D5000990F8A95EAF7892F0E94DA0DEFCF9BE56C
:100D6000980F933028F490E080E00E94EB180895EB
:100D700098E5980F9B3128F490E080E00E941019CC
:100D8000089593E3980F933118F460E00E943F06B2
:100D900008951F93CF93DF93182FEB010E9449060C
:100DA000209739F4812F0E949606DF91CF911F91F1
:100DB00008958FE99FE00197F1F700C000002197A7
:100DC000EFCF70E060E0893311F460E570E00E94DD
:100DD000C9060895882321F00E94D40D0E942A0E8E
:100DE0000895882321F00E94DA0D0E942A0E0895AA
:100DF000B0E0A0E0EEEFF6E00C94B21D6C01D62F4F
:100E0000C72FFC011581068102950F700E94CA0D43
:100E1000E82E8823E9F0E12E1123D1F08C2F807F7A
:100E2000803451F080E28D0F8830F8F0011104C059
:100E30008C2F807E8032C9F08091A50282FF15C080
:100E400082E00E94770E0E94CA0D91E0E82EE9260A
:100E5000BC2EB2949FE0B922FBE0FB15B8F1EB2D5C
:100E6000F0E0E25AF14E0C94A31DE12CF1CF0C2FCF
:100E70000F70C07F11F00295007F112399F00023BD
:100E800059F080E28D0F883010F0D11107C0802F0B
:100E90000E94D40D0E942A0E8D2F5AC0802F0E94CE
:100EA000E40DF8CF8D2F0E949606002379F080E2A2
:100EB0008D0F883010F0D11104C0802F0E94DA0D00
:100EC00003C0802F0E94EA0D0E942A0EEB2DE850ED
:100ED000FF0B349720F40E94C5180E94DB05EE201A
:100EE00089F00E94C60D80FD0DC0F60115820E949A
:100EF000C00D0E94C709C6010E9405090E94C00DCD
:100F00000E94D709CDB7DEB7E9E00C94CE1D2C2F97
:100F10002F70F22EC07FC03219F0F29480EFF822C9
:100F2000DD2341F0D130D1F1112309F444C0002375
:100F3000F1F0B2CF8091A50282FD15C0112359F0C6
:100F4000FF2029F08F2D0E94D40D0E942A0E80E0F0
:100F50000E944906BBCF80E00E949606FF2009F45C
:100F6000B5CF8F2DABCF112369F0011104C08F2DA8
:100F70000E94EA06ABCF013009F0A8CF8F2D0E9466
:100F8000080EA4CF0111A2CF8F2D0E94F1068F2D44
:100F90000E94140E8F2D0E94F80D98CF112321F07E
:100FA000063008F093CFE3CF053008F08FCF8F2DB8
:100FB0000E94F1068BCF0023D1F3D93349F43FEFE0
:100FC00087EE93E0315080409040E1F700C0000090
:100FD0008D2F0E9496067ACF8C2F869586958370EA
:100FE00069F0813009F072CF8D2F9C2F9370111111
:100FF00002C080E090E00E94101968CF8D2F9C2FD6
:101000009370111102C080E090E00E94EB185ECF57
:10101000612F8D2F0E943F0659CF8C2F8370A1F531
:10102000111154CF4D2F429546954770440F440FF0
:101030002D2F2F7030E0042E02C0220F331F0A9490
:10104000E2F790E080E0D4FF09C08FE090E002C0BA
:10105000880F991F4A95E2F780959095C695C69599
:10106000C370822B932BC23049F058F4C13019F071
:101070000E9497092BCF0E948E0928CF0E94A009B9
:1010800025CF0E948B0922CF8695112311F08C2F3A
:101090008170882309F41ACF4D2F429546954770E9
:1010A000440F440F2D2F2F7030E0042E02C0220F6A
:1010B000331F0A94E2F790E080E0D4FF09C08FE08C
:1010C00090E002C0880F991F4A95E2F780959095AD
:1010D000C695C695C370822B932BC23049F058F445
:1010E000C13019F00E94020AF1CE0E94F909EECE39
:1010F0000E940B0AEBCE0E94AF09E8CECF701123FD
:1011000029F08C2F0E94C7098D2F32CF8D2F0E947E
:10111000F1068C2F0E94D709D9CED23F41F160F45D
:10112000D03FB9F0D13F81F0112309F446C001113D
:10113000B3CE8C2F8F711FC0D33F01F1D43FA1F7E5
:101140008091A50282FD24C08C2F8F71112311F391
:1011500012C0112341F0053008F0B8CE8C2F8F71EA
:101160000E94E909B3CE063008F0B0CEF7CF8C2F3D
:101170008F711111CFCF0E94C709A8CE112329F07A
:101180008C2F8F710E94BB09A1CE0E94B6099ECE02
:10119000112349F0CF718C2F0E94C70963E08C2F77
:1011A0000E94590E93CE81E00E94770E023008F41F
:1011B0008DCE82E00E94770E89CE002359F0D9337C
:1011C00009F006CFEFEFF7EE23E0E150F0402040CA
:1011D000E1F7FCCE8C2F8F719DCF0F931F93CF9390
:1011E000DF93EC01688179818D810E94CA0A8C01AC
:1011F0000E94140A0E948A09B801CE010E94F806D2
:10120000DF91CF911F910F910895CF93DF93EC0160
:101210008C81882399F0CE010E946705811111C04D
:101220000E94CA0D882351F08D81882339F0809166
:10123000A50282FF03C082E00E94770EDF91CF916A
:101240000895CE010E94ED08CE010E944205F6CF1E
:1012500090E080E00E94EB1890E080E00E9410197E
:101260000E94F10D0E942A0E0E943D150E94211538
:1012700008950E94B90D0E94280908950E94E10D69
:101280000E943909089592959F70963091F058F414
:10129000925F9F70923058F4803F19F030F4883E8E
:1012A00030F481E008959A5FF4CF843FD1F380E079
:1012B0000895883EB0F3813FD1F7F3CFFC0124813C
:1012C000222339F0808191810E94BF0A0E94430944
:1012D000089580E00895A6E0B0E0E1E7F9E00C941D
:1012E000B91D2696E2E00C94D51DA7E0B0E0EBE72F
:1012F000F9E00C94B91D2796E2E00C94D51D0895F1
:101300000E947F0908950E94800990939B01809319
:101310009A01089508950E948309089520919A01E1
:1013200030919B01822B932B0E9483090895209179
:101330009A0130919B01822393230E94830908958F
:1013400020919A0130919B01822793270E94830963
:1013500008950E947F0908950E94A90908950E9496
:10136000AC099093990180939801089590E080E0F2
:101370000E94AF09089521E030E0A90102C0440FA6
:10138000551F8A95E2F7CA010E94AF09089521E02E
:1013900030E002C0220F331F8A95E2F78091980156
:1013A00090919901822B932B0E94AF09089521E01F
:1013B00030E002C0220F331F8A95E2F72095309566
:1013C0008091980190919901822393230E94AF0903
:1013D000089521E030E002C0220F331F8A95E2F722
:1013E0008091980190919901822793270E94AF09DB
:1013F00008952091980130919901822B932B0E949E
:10140000AF09089520919801309199018223932387
:101410000E94AF0908952091980130919901822787
:1014200093270E94AF0908950895262F277091E011
:1014300001C0990F2A95EAF723E0769567952A95DA
:10144000E1F7660F771F660F771FFA01E60FF71FA8
:1014500050E040E0682F70E08191DF0111979B011F
:10146000042E02C0369527950A94E2F72170219543
:101470002827292328272C934F5F5F4F443051059D
:1014800059F70895A82FA77023E0969587952A9578
:10149000E1F7880F991F880F991FFB01E80FF91FCB
:1014A00050E040E080E0219130E00A2E02C0369505
:1014B00027950A94E2F721703327042E01C0220FEA
:1014C0000A94EAF7822B4F5F5F4F4430510559F77A
:1014D0000895262F923070F4833060F4682F70E006
:1014E00083E0989F600D711D112444E951E0822F23
:1014F0000E94150A0895292F923068F4833058F419
:1015000090E064E971E033E0239F800D911D112488
:101510000E94420A089580E00895B0E0A0E0E3E967
:10152000FAE00C94B21D7C01009198011091990190
:1015300080919A0190919B01082B192BCFE0D0E06C
:10154000CC24C394D12CBC2EC6010C2E02C0880F13
:10155000991F0A94E2F780239123892B49F421975C
:1015600090F7B12C8B2DCDB7DEB7E9E00C94CE1DF2
:10157000B7018C2F0E945B11019789F3F3CFCF93B2
:10158000DF93EC010E948D0ABE010E945B11DF9186
:10159000CF9108951F93CF93DF93EB019091930127
:1015A000992339F0CB010E94BF0ADF91CF911F919F
:1015B0000895882369F0CB010E948D0A182F682FA7
:1015C000CE010E94690ABE01812F0E945B11EDCFFE
:1015D000CB010E947B0A182FF6CF1F93CF93DF9386
:1015E000C0919C0117E080919D018C1304C0DF9194
:1015F000CF911F910895D0E01C9FF0011D9FF00D29
:101600001124E256FE4F2081318142815381648151
:10161000758186810E9475092196C770E4CF20915B
:10162000D6013091D7014091D8015091D9016091F4
:10163000DA017091DB018091DC010E947509089547
:10164000CF93DF938091DC01807F09F04DC08091C2
:10165000DB01882309F448C0E0919C0150919D0171
:10166000C091D701D091D6016091D8017091D90174
:1016700047E05E17C9F18E2F90E0E49FF00111243E
:10168000E256FE4F2481222391F1489FF001499FA9
:10169000F00D1124DF01A256BE4F11962C91119727
:1016A0002C1325C02C912D1322C015962C91159723
:1016B00021111DC012962D913C91261B370B283C01
:1016C0003105A8F48091DC018F7080618093DC018A
:1016D000EC55FE4F80818F708061808386ED91E0B4
:1016E0000E9405090E94ED0ADF91CF910895FC0147
:1016F0003196E770BECF482F20919C0190919D01BB
:1017000057E0291302C080E0089530E0529FF001B5
:10171000539FF00D1124E256FE4F8181681306C0DD
:101720008081481303C085818111EECF2F5F3F4F29
:101730002770E7CFA4E1B0E0E0EAFBE00C94AF1D36
:101740008C0186E0F801DE011F9601900D928A95CA
:10175000E1F7F8018481E58096EDA92E91E0B92E9C
:101760009091DA0191111FC08823D1F0EE20A9F0E9
:10177000C8010E945E09F82E882379F087E0F801FD
:10178000D50101900D928A95E1F7C5010E943606B8
:101790000E94200B0E940F0B5FC0C8010E94050928
:1017A000FF24F39459C0C080D18082809380F09050
:1017B000DB012091D8013091D901A401421B530BC8
:1017C000FF2009F4F9C0483C510508F0A7C0882360
:1017D00009F442C09091D7018091DC01282F207F2D
:1017E00009F05CC09D1116C09091D601C91212C0BB
:1017F000E1104EC08F7080618093DC010E940F0B5E
:1018000086ED91E00E9405098091DC01F801868354
:10181000F12C22C0E1103CC06D2D8C2D0E947B0B61
:101820006D2D8C2D0E947B0BE82E8111F1CFCF8680
:10183000D88A8F8598890E94BF0A292F22952F70F8
:10184000243078F49F702230A8F09923B9F0F80181
:101850009681907F99F4FE2C8F2D6496ECE00C9489
:10186000CB1D2A5F2F70223068F0C8010E94050945
:10187000EF2CF1CF992311F0882369F3805E883033
:1018800050F3F3CF803F38F3815F833070F7E3CFBD
:101890008091DC0181608093DC01BACF9D1113C07F
:1018A0009091D601C9120FC0E1100DC08683C80106
:1018B0000E94050987E0F801A6EDB1E001900D92C4
:1018C0008A95E1F767CFC8010E945E09882309F471
:1018D00064CFEE2009F461CF8091DC01803288F082
:1018E0002091D6013091D701398728879B868A8637
:1018F0009091DA019C871D868E87CE0108960E9402
:10190000050987E0F801A6EDB1E001900D928A95F6
:10191000E1F70E94200B0E940F0B42CF9091DC0157
:10192000292F207FA1F4682D9A8A898AA6017A89B5
:101930009E2D0E946B0986ED91E00E94050987E0CB
:10194000F50111928A95E9F70E940F0B61CF882368
:1019500009F482CF8091D7018D1110C08091D601FA
:10196000C8120CC0E1100AC09683C8010E94050984
:1019700087E0F50111928A95E9F76ECFC8010E94C0
:101980005E09882309F409CFEE2009F406CF80917F
:10199000DC01803208F4B5CF2091D6013091D70117
:1019A0003A8329839C828B829091DA019D831E82E7
:1019B0008F83CE010196A3CF483C5105B8F588230B
:1019C00009F4EECEFE2CEE2009F4E7CE8091D7018B
:1019D0008D111EC08091D601C8121AC08091DC0101
:1019E00080FD0DC0982F907F51F08683903F09F4C1
:1019F0005ECF982F907F905F8F70892B57CF87E0B5
:101A0000F801A6EDB1E001900D928A95E1F724CF9F
:101A1000C8010E945E09811174CF8091DC01816050
:101A20008093DC01C8010E94050916CF682D9A8AAF
:101A3000898AA6017A899E2D0E946B0987E0F501AB
:101A400011928A95E9F7A6CEAEE0B0E0EAE2FDE0B9
:101A50000C94B81D288739874A875B876C877D87F8
:101A60008E87CE0108960E949A0B8823B1F06C8570
:101A7000662341F0288539854A855B857D858E857D
:101A80000E94750917E080919C0190919D01891336
:101A90003DC02E96E3E00C94D41D87E0FE013896FD
:101AA000DE01119601900D928A95E1F78C858823CD
:101AB00049F320919D0130E0C90101968770992773
:101AC00040919C014817190699F097E0929FD00128
:101AD000939FB00D1124A256BE4FFE013196019086
:101AE0000D929A95E1F780939D010E94ED0ACACF6D
:101AF0000E943E0910929D0110929C0187E0E6ED44
:101B0000F1E0DF011D928A95E9F7BCCF819FC0010A
:101B1000112482569E4F0E949A0B882309F4B9CF54
:101B2000E0919C011E9FF0011124E256FE4F20819E
:101B30003181428153816481758186810E9475095A
:101B400080919C0190E001968770992780939C0179
:101B50009ACF682F80910001909101010E947D1918
:101B60000895682F80910001909101010E948019D1
:101B7000089580910001909101010E9483190895B8
:101B80008091DD0186958695869508958091DD0189
:101B9000877008959091DD01977081E009F480E0ED
:101BA00008958091E90108959091E901892B80932E
:101BB000E901089580959091E90198239093E901B6
:101BC00008951092E90108959091E801892B80937E
:101BD000E801089580959091E80198239093E80199
:101BE00008951092E801089508950E94F40D089553
:101BF0009091DE01292F282331F08095892380934D
:101C0000DE010E94F50D089508950E94040E0895C6
:101C10009091DF01292F2823281729F0982B9093E2
:101C2000DF010E94050E08959091DF01292F2823DE
:101C300031F0809589238093DF010E94050E08957D
:101C40008091DF01882329F01092DF0180E00E945B
:101C5000050E0895E0910001F09101018091E901E4
:101C60008083E0910001F091010180819091E80171
:101C7000892B80839091DF01992381F0E09100010D
:101C8000F09101018081892B8083809100019091E6
:101C900001010E94351981110E94200E80910001DE
:101CA000909101010E94D218089508950E94550E46
:101CB00008959091A50292FF11C098E0899F90012C
:101CC0001124622B6093DD010E94C7098091DD0120
:101CD0008695869586950E94560E08950E94C7099E
:101CE00008951092DD0180E00E94560E08959091B3
:101CF000DD01809589238093DD01282F277069F409
:101D0000891759F09091A50292FF07C08695869594
:101D100086950E94D7090E94710E08959091A502A0
:101D200092FB222720F9281769F080FB92F9909303
:101D3000A5028091A4029091A5020E94D60E82E095
:101D40000E94770E08958091A50282FB882780F972
:101D500091E089270E948E0E089581E00E948E0EE8
:101D6000089580E00E948E0E08956FEF7FEF90E05F
:101D700080E00E94461E089590E080E00E94121EBE
:101D800021E0863E9E4F09F020E0822F089582E0F8
:101D900090E00E940A1E089583E090E00E940A1ECF
:101DA000089584E090E00E94121E0895BC0184E032
:101DB00090E00E94461E0895AB01BC018FE090E0C8
:101DC0000E943A1E0895AB01BC0183E190E00E949D
:101DD0003A1E089560E070E0CB010E94E30E089582
:101DE00060E070E0CB010E94DC0E0E94EA0E0895D4
:101DF000A8E0B0E0EEEFFEE00C94B91D66EE7EEFD9
:101E000090E080E00E94461E60E082E090E00E9448
:101E1000281E60E083E090E00E94281E10929B0143
:101E200010929A0160E074E184E090E00E94461E06
:101E300060E086E090E00E94281E6FEF87E090E06F
:101E40000E94281E40E050E0BA0188E090E00E9425
:101E50003A1E60E084E290E00E94281E60E087E184
:101E600090E00E94281E60E08CE090E00E94281E16
:101E700060E08DE090E00E94281E19821A821B8289
:101E80001C821D821E821F82188648E050E068E195
:101E900070E0CE0101960E94181E40E050E0BA01A9
:101EA00080E290E00E943A1E0E94F00E2896E2E046
:101EB0000C94D51D0E94F80E0895682F8EE090E0D6
:101EC0000E94281E0895A6E0B0E0E9E6FFE00C9429
:101ED000B71D0E94371A8C018091EA019091EB01A5
:101EE0008017910781F019821A820E94371A682F91
:101EF00049815A81792F80E090E00E940606109374
:101F0000EB010093EA012696E4E00C94D31D0E94B5
:101F1000431A6093F2017093F3018093F40190935C
:101F2000F5016093EE017093EF018093F0019093BF
:101F3000F1010895089508950E949A0F0895089553
:101F40000E949F0F089581E592E10E94C4130E94B0
:101F50009B0F0E949C0F089581E008950E94AC0F92
:101F600008950E94AC0F0895089508950E94B40F3B
:101F70000E94B50F08950E9470120E94DA0508951C
:101F80000E942E1A0E942C130E94BB0F0E94A00FC9
:101F90000895A6E0B0E0EFECFFE00C94B01D0E94C5
:101FA000AE0F81110AC00E94630F0E945F150E944C
:101FB000ED052696EBE00C94CC1D0E943C1310918D
:101FC000EC0180E00E949612181307C01091ED01F9
:101FD00081E00E949612181731F38091F60181FD7D
:101FE0000E949C120E94B10FC82E8CEEA82E81E098
:101FF000B82E10E099249394812F0E949612082FF6
:10200000F50181915F01081729F1D02ED826F12C16
:10201000EE24E3948E2D8D21A9F0CC2099F0F98245
:102020001A830E94371A9C838B839D8291E08E2DA8
:10203000802309F490E049815A816B817C818D81F4
:102040000E940606F394EE0CF3E0FF12E3CFF501D5
:1020500031970083113019F40E94870FA6CF11E049
:10206000CBCF1F93CF93DF930E946011EC01C1157A
:1020700080E5D807F0F5C11580E4D80708F09CC0CA
:10208000C03ED10520F5CD3CD10508F082C0C83A4C
:10209000D10578F4C53AD10508F073C0C130D10537
:1020A00019F1209709F1C430D105F0F4D0E0C0E077
:1020B0001BC0C33CD105D0F7C85AD0E0CC0FDD1F00
:1020C000C35BDE4F0990D881C02DD4640DC0C1150B
:1020D00080E2D80708F0D1C0C11581E0D80708F028
:1020E0005AC0C83ED10510F7CE01DF91CF911F91A4
:1020F0000895C03682E5D80718F5C03482E5D807C0
:1021000008F06BC0C03282E5D80708F05FC0C11587
:1021100082E5D80708F497C02C2F2695269580E2F3
:10212000289F900111248C2F8370C1E0D0E002C061
:10213000CC0FDD1F8A95E2F7C22BD32BDD68D4CFFD
:10214000C03A82E5D80760F4C03882E5D80708F4C1
:1021500059C0CF71D0E0DC2FCC27C46FD06AC4CF78
:10216000C03C82E5D80708F462C0C03E82E5D807CB
:1021700008F09CCFDC2FCC27CC27DF71C06FD06A52
:10218000B3CFC55AD0E0CD57DE4FC881D0E0D06480
:10219000ABCFD065A9CF8D2F0E940212182FCE0190
:1021A00099270E946011C12FD0E0DC2FCC27CC27CB
:1021B000DF71C82BD92B98CFCE0199270E946011CF
:1021C000CC27DF70C82BD92BD06A8ECFCF71D0E04F
:1021D000DC2FCC27C16FD06A87CF2C2F2695269570
:1021E000277080E2289F900111248C2F8370C1E01A
:1021F000D0E002C0CC0FDD1F8A95E2F7C22BD32BB3
:10220000DC6872CF2C2F26952695277080E2289FB8
:10221000900111248C2F8370C1E0D0E002C0CC0F5C
:10222000DD1F8A95E2F7C22BD32BDA685DCF8C2FA6
:102230008F710E940212C82FD0E0DC2FCC27CC2750
:10224000DF71D06251CF8C2F8F710E94021255E046
:10225000D695C7955A95E1F7CF70D0E0DC2FCC2703
:10226000282F30E084FF05C044E0220F331F4A9539
:10227000E1F7C22BD32BD06937CF8D2F8F710E94FE
:102280000212182FCE0199270E946011C12FD0E0B1
:10229000DC2FCC27CC27DF71C82BD92BD2CF462FF0
:1022A000723030F4633020F4672F0E94EC040895FC
:1022B00090E080E008950E944F110E94311008952F
:1022C00082389105B9F1B0F48133910509F47DC0EC
:1022D00048F48932910509F46DC08A32910509F4F8
:1022E0007BC008958533910509F45FC0893391055A
:1022F00009F10895833E9105D9F138F4803E9105A6
:1023000029F1823E910579F10895863E9105D9F132
:10231000873E910509F43EC0843E910541F5209128
:10232000A50221FF24C08091A40284FD19C087EE7C
:1023300090E008952091A402237009F05AC02091E2
:10234000A50223FF14C089E290E008952091A40221
:1023500020FD38C03091A50230FF09C024FF43C0E2
:1023600090E080E008952091A40222FDF7CF089527
:102370002091A40222FD3AC03091A50230FD39C05F
:1023800024FFF5CFEDCF2091A40223FFF0CF24FD51
:10239000E7CFCDCF2091A40223FD2EC03091A5021E
:1023A00031FFEECF84EE90E008952091A40225FF46
:1023B000DECFC9CF2091A40225FD21C02091A50226
:1023C00023FFD5CF89E390E0D2CF2091A40226FF4E
:1023D000CECF8AE290E008952091A40226FFC7CFD5
:1023E00081E390E0089583EE90E0089582EE90E01E
:1023F000089580EE90E0089586EE90E0089585E3DC
:1024000090E008959091A40292FF10C041E0282F1F
:102410002471243009F040E031E0282F2871283061
:1024200009F030E0431711F02CE0822793FF10C031
:1024300041E0282F2471243109F040E031E0282FB9
:102440002871283109F030E0431711F02CE0822781
:102450003091A50230FF10C051E0282F21712130AA
:1024600009F050E041E0282F2871283009F040E0C1
:10247000541711F029E0822731FF10C041E0282FC6
:102480002171213109F040E031E0282F28712831F5
:1024900009F030E0431711F029E0822794FD877E90
:1024A000089580E008950E94B50E08950E943C139F
:1024B0002FEF86E791E0215080409040E1F700C087
:1024C00000000E943C1380E00E94961280FF04C02E
:1024D0000E9453120E94821A08950E945612089573
:1024E0000E94BC0E811102C00E945A0F0E94C70EAA
:1024F0008093F6010E94D10E9093A5028093A402CE
:102500000E946D120E94CC0E90E00E948B09809177
:102510009801909199010E94AC09089508950E9434
:102520008E12089508950E9492120895E82FF0E007
:10253000E855FD4F80810895089580EA8A95F1F766
:10254000089500C008950E949D120895F894E82F00
:10255000E295EF70F0E031A1282F2F7081E090E03C
:1025600001C0880F2A95EAF7982F9095932391A39D
:1025700092A1892B82A37894089581E30E94A612E8
:1025800080E30E94A61280E60E94A61281E60E94C5
:10259000A61282E60E94A6120895B0E0A0E0E3ED44
:1025A000F2E10C94B31DEC01D62E062F10E0C80109
:1025B00087579E4F7C01FC0180818F3F09F445C005
:1025C000F894E82FE295EF70F0E091A18F7021E090
:1025D00030E001C0220F8A95EAF7892F822B81A370
:1025E00082A12095282322A378940E94A112E6E8D4
:1025F000F1E049E851E031E0C12C21912F3F51F148
:10260000A22FA295AF70B0E090968C9190E02F70C1
:1026100002C0959587952A95E2F780FD1BC0832F10
:10262000C82A330F4E175F0741F7F70180818F3FAC
:1026300011F00E94A61261E0C11001C060E08D2D72
:102640000E94A312C00FD11FC882CDB7DEB7E8E049
:102650000C94CF1D80E0E4CF0E94BD121092A9021D
:102660001092A8021092A7021092A60282E00E9485
:1026700072130E948F120895A2E0B0E0E2E4F3E149
:102680000C94B81D1A82198260E0CE0101960E9456
:10269000CD1261E0CE0101960E94CD1242E050E0E1
:1026A000BE016F5F7F4F86EA92E00E94F41D21E039
:1026B000009709F420E0892B31F089819A81909369
:1026C000A7028093A60242E068EA72E086EA92E0FE
:1026D0000E947313182F0E949312812F2296E3E019
:1026E0000C94D41D0895CF92DF92EF92FF920F9336
:1026F0001F93CF936C017B01042F222349F081E0CB
:102700008093F9010E94371A9093F8018093F701A2
:10271000C091F901C1110AC0C0E08C2FCF911F9167
:102720000F91FF90EF90DF90CF9008958091F70187
:102730009091F8010E944F1A059770F310E0A801DC
:10274000B601C7010E94F41D892B41F0A801B60112
:10275000C7010E94011E1092F901DFCFC0E0FBCF3C
:102760000E94B21A0E94C00F0E94C31A08950E94CC
:10277000D6190E94A21A0E94A30F0E94B0130E94B1
:10278000D11A0E94B60FFBCF90938D0180938C01DC
:102790000895282F35EB2303C001112497FF04C0AF
:1027A00080589109892F089580589F4FFBCF8091C1
:1027B000000280FF0DC06091070170E0660F771F77
:1027C0006038710570F56115710569F1862F0895FE
:1027D00081FF07C06091070184E0689FB001112468
:1027E000EFCF6091070182FD0AC08091FF0188232D
:1027F000A9F02091060160910701821710F088E08E
:10280000ECCF869FC001112433E0880F991F3A95C1
:10281000E1F7622F70E00E948F1DD2CF68E070E078
:10282000D5CF8FE7089581E008958091000280FF61
:102830000CC06091030170E075956795759567957B
:102840006115710549F1862F089581FF06C06091D9
:10285000030170E075956795F3CF6091030182FDE8
:102860000BC09091FE019923A1F06091020180912B
:102870000301961738F0682F70E06038710500F397
:102880008FE70895899FC001112470E00E948F1D79
:10289000F4CF61E070E0D7CF81E008958D3C31F452
:1028A0000E94D71381958093040208958E3C19F4F9
:1028B0000E94D713F8CF8F3C31F40E94D713819533
:1028C000809303020895803D19F40E94D713F8CF36
:1028D000893D29F40E9415148093050208958A3DCC
:1028E00021F40E9415148195F7CF8B3D31F40E949D
:1028F000151481958093060208958C3D19F40E9469
:102900001514F8CF9FE2980F983070F4815D990B01
:1029100021E030E001C0220F8A95EAF7809102029F
:10292000822B8093020208958D3D31F48091000244
:1029300081608093000208958E3D21F48091000211
:102940008260F7CF8F3DB9F7809100028460F1CFAC
:10295000409103028D3C59F48091040287FF0DC021
:102960001092040241110BC01092FF0108C08E3C6E
:1029700081F48091040218169CF3442381F0809125
:10298000050290910602892B09F05AC01092FE01AF
:1029900008958F3C49F447FFF0CF109203028091D5
:1029A00004028111ECCFE0CF803D19F41416ACF392
:1029B000E4CF90910502893D29F41916F4F610929E
:1029C0000502DBCF8A3D19F497FFD7CFF8CF90915E
:1029D00006028B3D29F497FFD0CF10920602CDCF8F
:1029E0008C3D19F41916CCF3C8CF9FE2980F98309C
:1029F00090F4815D990B21E030E0B90102C0660FCF
:102A0000771F8A95E2F7CB01809590910202892386
:102A100080930202B2CF8D3D31F4809100028E7F0F
:102A200080930002AACF8E3D21F4809100028D7F19
:102A3000F7CF8F3D09F0A1CF809100028B7FF0CFBF
:102A400008950E94371A9C0190910302809104021C
:102A5000982B21F03093FD012093FC019091050209
:102A600080910602982B21F03093FB012093FA010C
:102A700081E092E00E94DD18089586E0E1E0F2E056
:102A8000DF011D928A95E9F71092FF011092FE0175
:102A9000109200020895FC01828181110EC0838191
:102AA00081110BC08481811108C091E08581811161
:102AB00001C090E0892F8170089581E0FCCFA6E0ED
:102AC000B0E0E5E6F5E10C94B81D86E0E1E0F2E067
:102AD000DE01119601900D928A95E1F710920302A2
:102AE0001092040210920502109206028B819C81C2
:102AF000892B89F08091FC019091FD010E944F1A71
:102B0000AC019091FF019923C9F1809108018417CC
:102B1000150608F440C08D819E81892B91F080912B
:102B2000FA019091FB010E944F1AAC019091FE01B5
:102B3000992309F46AC0809104018417150608F4EA
:102B400072C0BE016F5F7F4F81E092E00E948A19E0
:102B5000811105C081E092E00E944B1581110E9415
:102B6000211586E0FE013196A1E0B2E001900D92C0
:102B70008A95E1F72696E3E00C94D41D2091090193
:102B80008AE0289F900111242417350720F69F5FC3
:102B90009093FF0102C09F3FD1F71B81112359F091
:102BA0000E94D7139FEF11160CF491E0899F802D9E
:102BB0001124809303021C81112359F00E94D71322
:102BC0009FEF11160CF491E0899F802D11248093C2
:102BD000040280910302882309F49DCF109104021E
:102BE000112309F498CF0E94C913882351F08093D0
:102BF0000302812F0E94C913882329F080930402C5
:102C00008ACF81E0F4CF81E0F9CF209105018AE0FD
:102C1000289F900111242417350708F092CF9F5F59
:102C20009093FE0102C09F3FD1F71D81112359F0FF
:102C30000E9415149FEF11160CF491E0899F802DCE
:102C40001124809305021E81112359F00E9415144E
:102C50009FEF11160CF491E0899F802D1124809331
:102C6000060280910502882309F46BCF10910602B9
:102C7000112309F466CF0E94C913882351F0809371
:102C80000502812F0E94C913882329F08093060230
:102C900058CF81E0F4CF81E0F9CFCF93DF93EC01FF
:102CA000FB018581882309F4D2C09E01305723326D
:102CB000310508F0B2C00E94D10E9093A502809316
:102CC000A402FE01E150F047E232F10520F4E6599A
:102CD000F14E0C94A31D8091A40281608093A40204
:102CE00093C08091A50288608093A5028DC08091D9
:102CF000A4028260F3CF8091A4028460EFCF809120
:102D0000A4028860EBCF8091A5028160EDCF809115
:102D1000A5028260E9CF8091A4028061DFCF80911B
:102D2000A4028062DBCF8091A4028064D7CF0E948E
:102D30003E098091A4028068D1CF8091A4028C606A
:102D4000CDCF8091A5028360CFCF8091A4028E7FEA
:102D5000C5CF8091A502877FC7CF8091A4028D7FC8
:102D6000BDCF8091A4028B7FB9CF8091A402877FD1
:102D7000B5CF8091A5028E7FB7CF8091A5028D7FC0
:102D8000B3CF8091A4028F7EA9CF8091A4028F7DC2
:102D9000A5CF8091A4028F7BA1CF0E943E09809194
:102DA000A4028F779BCF8091A402837F97CF8091DD
:102DB000A5028C7F99CF8091A40282FB992790F97C
:102DC00021E0922790FB82F990FB83F987CF8091D5
:102DD000A502982F909591708E7F892B90FB81F999
:102DE00083CF9091A402892F8F7B96FF806476CF4A
:102DF0000E943E099091A402892F97FB87F9805881
:102E00006DCF81E00E945D0F8091A4029091A50298
:102E10000E94D60E0E943E0980E0DF91CF91089576
:102E200080E0F0CF9091A402892F8F7E94FF806183
:102E300055CF9091A402892F8E7F90FF81604ECF55
:102E40009091A502892F877F93FF88604DCF81E005
:102E5000E4CFB0E0A0E0EFE2F7E10C94B41DE82F7E
:102E6000F0E0EF5DFB4FD490282F26952695269510
:102E700030E0F901EF53FB4F0491877010E0082E0A
:102E800002C0159507950A94E2F701701127F90120
:102E9000EF54FB4FE490F12C082E02C0F594E79418
:102EA0000A94E2F791E0E922FF24F901EF55FB4F84
:102EB000C491D0E002C0D595C7958A95E2F7C1705C
:102EC000DD270115110519F081EE0E944906E11474
:102ED000F10419F086EE0E9449068D2D0E94E1064C
:102EE000E114F10419F086EE0E9496060115110511
:102EF00019F081EE0E949606CD2B19F08CE20E940B
:102F0000E106CDB7DEB7E7E00C94D01DEF92FF925B
:102F10000F931F93CF93DF938C01F62E8AE0E82E58
:102F2000F8018491882309F454C0813009F04DC020
:102F3000E8012196FE018491813091F42196FE01F1
:102F400084910E94E1068E010F5F1F4F8F2D8150EB
:102F500038F3EFE9FFE03197F1F700C00000F7CF59
:102F6000823039F4E8012296FE0184910E944906DC
:102F7000EACF833039F4E8012296FE0184910E9461
:102F80009606E1CF8430F9F6E8012296FE012491FD
:102F900090E080E0FE0131962053330B2A3031055A
:102FA00048F0019780F2EFE9FFE03197F1F700C0B8
:102FB0000000F7CFE89EA001E99E500D1124C90141
:102FC000840F951F2491EF01E5CF0E942917E80196
:102FD000BACFCDB7DEB7E6E00C94D11DCF93DF9327
:102FE000EB0186319C4711F50E94D10D9D819923FB
:102FF00099F08A7A91E009F490E0909307028111A8
:1030000009C089E20E94A90D0E942A0E80E0DF918A
:10301000CF91089585E3F6CF80910702811104C016
:1030200089E20E94B10DF0CF85E3FBCF81E0EFCFC5
:103030000F931F93CF93DF93C42FD22FFC01858171
:103040008823C9F040930A020E94371A909309021C
:103050008093080280E28C0F883040F4C77081E0D2
:1030600001C0880FCA95EAF70E94EA06DF91CF9166
:103070001F910F91089510910A02141332C080918C
:103080000802909109020E944F1A883C910548F568
:10309000C0E2CD0F1D17B9F080E2810F883040F4F7
:1030A000177081E001C0880F1A95EAF70E94F106B7
:1030B000C83048F481E09D2F977001C0880F9A9521
:1030C000EAF70E94EA06802F0E94E106C83070F6F7
:1030D000D77081E001C0880FDA95EAF70E94F10607
:1030E000C5CF80E28C0F883008F6C77081E001C040
:1030F000880FCA95EAF7F2CF0F93DB0188519C47FE
:1031000087309105A0F5FC01E457F14E0C94A31D06
:1031100006E221EE41EE6AE17CE7CD010E9418183B
:1031200080E00F91089507E225EE45EE6BE17CE724
:10313000F4CF06E221EE40EE68E17CE7EECF07E255
:1031400025EE44EE69E17CE7E8CF06E221EE42EEAF
:103150006CE17CE7E2CF07E225EE46EE6DE17CE72D
:10316000DCCF08E221E045EE6EE17CE7D6CF159694
:103170008C91882319F010920A02D3CF81E0D1CF2D
:103180009093100280930F020895E0910F02F09146
:103190001002309729F00190F081E02D09950895F3
:1031A00080E00895E0910F02F0911002309721F035
:1031B0000280F381E02D09950895E0910F02F091CE
:1031C0001002309739F022E0DC012C930480F58165
:1031D000E02D09950895A3E0B0E0E1EFF8E10C944B
:1031E000B91D20910D0230910E0228173907A1F068
:1031F00090930E0280930D02E0910F02F091100265
:10320000309751F023E029839B838A830680F781DE
:10321000E02DCE01019609952396E2E00C94D51D90
:10322000A3E0B0E0E6E1F9E10C94B91D20910B02B6
:1032300030910C0228173907A1F090930C0280936B
:103240000B02E0910F02F0911002309751F024E050
:1032500029839B838A830680F781E02DCE01019626
:1032600009952396E2E00C94D51D9C012E5F3F4FFB
:10327000AC01485F5F4F80E02417350709F40895DB
:10328000F90191919F019923B9F38F5FF5CF6623DF
:1032900049F0FC01329608962191261729F0E8178B
:1032A000F907D1F780E0089581E008959C01FC01C1
:1032B00032969FEF80E04191461751F09F3F19F4FD
:1032C000411101C0982F8F5F8630A9F79F3F09F405
:1032D0000895290F311D97FD3A95F90162830895EC
:1032E000FC01329608962191261303C0DF01119745
:1032F0001C92E817F907B9F708950E945619089526
:103300000E9470190895029626E0FC0111922A95F8
:10331000E9F70895DC01FB0111969C9111978181D9
:10332000981322C012968C911297882319F09281DB
:1033300089131AC013968C911397882319F09381DF
:10334000891312C015968C911597882319F09581D1
:1033500089130AC014969C91992321F081E024815D
:10336000291303C080E001C081E0817008950895B1
:1033700008950E94B8190895089508950E94B719F4
:1033800008950E94BC190E943C130E94BD1980E060
:103390000E94961291E0811107C081E00E9496126E
:1033A00091E0811101C090E0892F089508951F9246
:1033B0001FB61F9211248F939F93AF93BF93809159
:1033C0001102811113C08091AA029091AB02A091C9
:1033D000AC02B091AD024196A11DB11D8093AA022D
:1033E0009093AB02A093AC02B093AD02BF91AF91AA
:1033F0009F918F911F901FBE1F901895809114026E
:10340000882331F10E94BD051092110288E190E0FD
:1034100020E40FB6F894A895809360000FBE209327
:10342000600083B7817F846083BF83B7816083BF7F
:103430007894889583B78E7F83BF0FB6F894A8954C
:1034400080916000886180936000109260000FBEE0
:1034500008950E943E090E94C205089582E084BD3D
:1034600093E095BD9AEF97BD80936E0008952FB7B6
:10347000F8948091AA029091AB02A091AC02B09115
:10348000AD022FBF08952FB7F8946091AA027091F2
:10349000AB028091AC029091AD022FBF08959C01C8
:1034A0004FB7F8948091AA029091AB02A091AC0220
:1034B000B091AD024FBF821B930B089578941F9279
:1034C0001FB61F9211248F939F93AF93BF93809148
:1034D000AA029091AB02A091AC02B091AD0201960C
:1034E000A11DB11D8093AA029093AB02A093AC02E0
:1034F000B093AD02BF91AF919F918F911F901FBE6E
:103500001F90189588E198E00FB6F894A8958093DD
:1035100060000FBE90936000A895F894D8E0CEEFBD
:1035200028E3299320E0299314BEFFCF089588E172
:1035300098E00FB6F894A895809360000FBE909322
:103540006000FFCF0E94371A9093130280931202FB
:1035500080E890E00FB6F89480936100909361004A
:103560000FBE08950E94741D539A80E0815019F493
:10357000539878940895A895EFE9FFE03197F1F713
:1035800000C00000F3CF0E94961B0E94C0182FEFCE
:1035900080E792E0215080409040E1F700C00000B9
:1035A00008958091D502882311F11092D5020E94CE
:1035B000371A909313028093120280911402882389
:1035C00041F0109214020E94291A80911402811174
:1035D00012C00E94841C8091DB02882329F0809114
:1035E000B90284FD0E94C90F0E943D1B089580917D
:1035F0001402882301F10E94FE190E94C119882338
:10360000A9F3F8942AB15B9A822F8C608AB99BB196
:103610003CE093279BB94FE788E391E0415080401D
:103620009040E1F700C000008BB183278BB92AB925
:103630005B987894089580911202909113020E94F1
:103640004F1A069708F4C1CF81E0809314020E94BC
:10365000FE19BBCF8091A30208952091F20224FFAE
:1036600003C063E00E947F1C08952091F20224FFB2
:1036700003C066E00E947F1C0895CF93DF93CAE0E9
:10368000D0E08091B90284FF1AC08091200290910D
:103690002102981789F028E0829FC001112468E078
:1036A0008E5D9D4F0E947A1C8091200290E00196D1
:1036B0008F70992780932002DF91CF9108950E9407
:1036C000841C8FE99FE00197F1F700C0000021976B
:1036D000C1F6F2CFCF93DF93EC01A0912102B0E0CD
:1036E000CD0101968F70992720912002281779F03B
:1036F00093E0AA0FBB1F9A95E1F7AE5DBD4F98E02E
:10370000FE0101900D929A95E1F7809321020E94AB
:10371000841C0E943D1B88E0FE01A8E1B2E00190FC
:103720000D928A95E1F7DF91CF9108958AE091E0BB
:103730000895FC01808180768032F1F481818130AE
:1037400061F484819581892BB9F488E192E09093AA
:10375000D7028093D60288E00895823041F482EA4D
:1037600092E09093D7028093D60281E008958A3048
:1037700029F483818093A20280E008958930E1F7E3
:10378000828193818115924069F484819581892B8E
:1037900049F481E080931702868197819093160205
:1037A000809315028FEF0895FC018091150290918E
:1037B0001602892B61F080911702813041F49081CB
:1037C0009093A302109216021092150208958FEFA3
:1037D00008950895FC019381933059F130F49130AC
:1037E000C1F09230F1F080E00895913209F440C0C8
:1037F0009232C9F784819581009709F44AC00197F4
:1038000091F784E595E09093D7028093D6028BE7F9
:1038100008958CE095E09093D7028093D60282E1E0
:10382000089581ED94E09093D7028093D6028BE3C4
:10383000089582818130A1F0882351F0823099F679
:103840008EE195E09093D7028093D6028AE10895A5
:1038500080E595E09093D7028093D60284E00895A6
:103860008AE395E09093D7028093D60284E108958D
:103870008281882331F0813009F0B5CF8CEF94E05C
:1038800002C083EE94E09093D7028093D60289E041
:1038900008958FEC95E09093D7028093D60284E44C
:1038A00008951F93CF93DF93E82F792F162FEA0106
:1038B000888184FF1CC0298188E828272983CE01BC
:1038C0000296DC012E2F372F512F5E0FF901219127
:1038D0002D939F01452F4E1B1416C4F3612F0E9498
:1038E0003E031C5F1883DF91CF911F9108958AE5F5
:1038F0008883E5CF49EB52E00E94511C089542EFC6
:1039000052E00E94511C0895CF93DF936091D8023A
:10391000635067FD12C08091D402CCE0D0E0C81B98
:10392000D109C452DD4F8091D302803108F054C0D8
:10393000CE010E94E91B1092D8028091130184FFEE
:103940003EC0809112018F3FD1F1C82F893008F01D
:10395000C8E0982F9C1B909312019091AE0228E82A
:1039600092279093AE028823E9F08091D60290913D
:10397000D7022091D20226FFAEC0FC012C2FAFEA65
:10398000B2E034913D9331962150D9F79C012F5FDD
:103990003F4F8FEF8C0F820F932F911D9093D70283
:1039A0008093D6026C2F8FEA92E00E943E03CC5F98
:1039B000CC3019F08FEF80931201C093130184E192
:1039C00099B19C7031F48150D9F71092D9021092BC
:1039D000D102DF91CF9108958D3209F069C068302E
:1039E00009F0A9CF83EC8093AE028AE5809313019E
:1039F0001092D2028881807671F0CE010E94991BCC
:103A00008F3FC1F4988197FD8E8190E89093D20208
:103A10008093120190CF2A811092B702998191115F
:103A200011C01092B80227EB32E082E03093D70247
:103A30002093D6029F819111EBCF9E81981740F77A
:103A4000892FE6CF953029F42093D90227EB32E075
:103A5000EDCF963099F49B81913021F4CE010E94F4
:103A6000EA1B08C09230D1F39330C1F39132B1F325
:103A70009232A1F390E49093D202C2CF983089F0B1
:103A8000993019F42093DB02E1CF9A3071F09B302A
:103A9000E9F69BE49093BA029093F3029093C602E6
:103AA000D5CF2BED32E081E0C1CF27EB32E0FBCF69
:103AB0008091D20287FF3FCFCE010E94D41B8F3F5F
:103AC00021F48EE18093130136CF882309F433CF9C
:103AD0001092120130CFDC012C2FEFEAF2E03D9181
:103AE00031932150E1F752CFCF93DF93E9E6F0E035
:103AF000808188608083E99AC9EBD2E08BE4898376
:103B0000A2EFB2E011968C931197E5ECF2E081837D
:103B10008AE588838C938083DF91CF91089597FB0A
:103B2000072E16F4009407D077FD09D00E94E01DFF
:103B300007FC05D03EF4909581959F4F08957095B0
:103B400061957F4F0895EE0FFF1F0590F491E02DD2
:103B500009942F923F924F925F926F927F928F9231
:103B60009F92AF92BF92CF92DF92EF92FF920F930C
:103B70001F93CF93DF93CDB7DEB7CA1BDB0B0FB616
:103B8000F894DEBF0FBECDBF09942A8839884888D3
:103B90005F846E847D848C849B84AA84B984C88469
:103BA000DF80EE80FD800C811B81AA81B981CE0F60
:103BB000D11D0FB6F894DEBF0FBECDBFED01089545
:103BC000AA1BBB1B51E107C0AA1FBB1FA617B70743
:103BD00010F0A61BB70B881F991F5A95A9F780955F
:103BE0009095BC01CD010895FB01DC0104C08D91CD
:103BF0000190801921F441505040C8F7881B990B5F
:103C00000895FB01DC0102C001900D92415050402B
:103C1000D8F70895F999FECF92BD81BDF89A9927FA
:103C200080B50895A8E1B0E042E050E00C944E1E4B
:103C3000DC01A40FB51F4150504048F0CB01840F68
:103C4000951F2E910E94291E41505040D0F7089593
:103C5000262FF999FECF92BD81BDF89A019700B445
:103C6000021639F01FBA20BD0FB6F894FA9AF99AE5
:103C70000FBE08950396272F0E94291E0E94281E1A
:103C8000252F0E94291E242F0C94291E0196272FD0
:103C90000E94291E0C94281EDC01CB01FC01F9991D
:103CA000FECF06C0F2BDE1BDF89A319600B40D9288
:103CB00041505040B8F70895F894FFCF37073707C1
:103CC00087078707EC070808660766070D087E0860
:103CD0008D088D08A5161917AD1677167B16B11627
:103CE0007F16B516C1168B1612178F16C5169316AA
:103CF000C916F1169716CD16F8169D16D316DB16B3
:103D00008316B9168716BD16A116D716E716011722
:103D100010177116A916201799189F18881893184C
:063D2000A518AB18B11854
:103D2600E001280850011E0A14012A1B6A1B351BD4
:103D36002D1BFF5AE200E900EA00B500B600B70005
:103D4600CD008301CC008A01920194012102230255
:103D560024022502260227022A02B300B4006F00BD
:103D660070009F01CB019F02A002818283E200E9DD
:103D760000EA00B500B600B700CD008301CC008A8A
:103D86000192019401210223022402250226022720
:103D9600022A02B300B4006F0070009F01CB019F9E
:0C3DA60002A00281828360616231300063
:00000001FF
